{
  "contractName": "AnimeNFT",
  "abi": [
    {
      "inputs": [
        {
          "internalType": "address",
          "name": "marketplaceAddress",
          "type": "address"
        }
      ],
      "stateMutability": "nonpayable",
      "type": "constructor"
    },
    {
      "anonymous": false,
      "inputs": [
        {
          "indexed": true,
          "internalType": "address",
          "name": "owner",
          "type": "address"
        },
        {
          "indexed": true,
          "internalType": "address",
          "name": "approved",
          "type": "address"
        },
        {
          "indexed": true,
          "internalType": "uint256",
          "name": "tokenId",
          "type": "uint256"
        }
      ],
      "name": "Approval",
      "type": "event"
    },
    {
      "anonymous": false,
      "inputs": [
        {
          "indexed": true,
          "internalType": "address",
          "name": "owner",
          "type": "address"
        },
        {
          "indexed": true,
          "internalType": "address",
          "name": "operator",
          "type": "address"
        },
        {
          "indexed": false,
          "internalType": "bool",
          "name": "approved",
          "type": "bool"
        }
      ],
      "name": "ApprovalForAll",
      "type": "event"
    },
    {
      "anonymous": false,
      "inputs": [
        {
          "indexed": true,
          "internalType": "address",
          "name": "from",
          "type": "address"
        },
        {
          "indexed": true,
          "internalType": "address",
          "name": "to",
          "type": "address"
        },
        {
          "indexed": true,
          "internalType": "uint256",
          "name": "tokenId",
          "type": "uint256"
        }
      ],
      "name": "Transfer",
      "type": "event"
    },
    {
      "inputs": [
        {
          "internalType": "address",
          "name": "to",
          "type": "address"
        },
        {
          "internalType": "uint256",
          "name": "tokenId",
          "type": "uint256"
        }
      ],
      "name": "approve",
      "outputs": [],
      "stateMutability": "nonpayable",
      "type": "function"
    },
    {
      "inputs": [
        {
          "internalType": "address",
          "name": "owner",
          "type": "address"
        }
      ],
      "name": "balanceOf",
      "outputs": [
        {
          "internalType": "uint256",
          "name": "",
          "type": "uint256"
        }
      ],
      "stateMutability": "view",
      "type": "function",
      "constant": true
    },
    {
      "inputs": [
        {
          "internalType": "uint256",
          "name": "tokenId",
          "type": "uint256"
        }
      ],
      "name": "getApproved",
      "outputs": [
        {
          "internalType": "address",
          "name": "",
          "type": "address"
        }
      ],
      "stateMutability": "view",
      "type": "function",
      "constant": true
    },
    {
      "inputs": [
        {
          "internalType": "address",
          "name": "owner",
          "type": "address"
        },
        {
          "internalType": "address",
          "name": "operator",
          "type": "address"
        }
      ],
      "name": "isApprovedForAll",
      "outputs": [
        {
          "internalType": "bool",
          "name": "",
          "type": "bool"
        }
      ],
      "stateMutability": "view",
      "type": "function",
      "constant": true
    },
    {
      "inputs": [],
      "name": "name",
      "outputs": [
        {
          "internalType": "string",
          "name": "",
          "type": "string"
        }
      ],
      "stateMutability": "view",
      "type": "function",
      "constant": true
    },
    {
      "inputs": [
        {
          "internalType": "uint256",
          "name": "tokenId",
          "type": "uint256"
        }
      ],
      "name": "ownerOf",
      "outputs": [
        {
          "internalType": "address",
          "name": "",
          "type": "address"
        }
      ],
      "stateMutability": "view",
      "type": "function",
      "constant": true
    },
    {
      "inputs": [
        {
          "internalType": "address",
          "name": "from",
          "type": "address"
        },
        {
          "internalType": "address",
          "name": "to",
          "type": "address"
        },
        {
          "internalType": "uint256",
          "name": "tokenId",
          "type": "uint256"
        }
      ],
      "name": "safeTransferFrom",
      "outputs": [],
      "stateMutability": "nonpayable",
      "type": "function"
    },
    {
      "inputs": [
        {
          "internalType": "address",
          "name": "from",
          "type": "address"
        },
        {
          "internalType": "address",
          "name": "to",
          "type": "address"
        },
        {
          "internalType": "uint256",
          "name": "tokenId",
          "type": "uint256"
        },
        {
          "internalType": "bytes",
          "name": "_data",
          "type": "bytes"
        }
      ],
      "name": "safeTransferFrom",
      "outputs": [],
      "stateMutability": "nonpayable",
      "type": "function"
    },
    {
      "inputs": [
        {
          "internalType": "address",
          "name": "operator",
          "type": "address"
        },
        {
          "internalType": "bool",
          "name": "approved",
          "type": "bool"
        }
      ],
      "name": "setApprovalForAll",
      "outputs": [],
      "stateMutability": "nonpayable",
      "type": "function"
    },
    {
      "inputs": [
        {
          "internalType": "bytes4",
          "name": "interfaceId",
          "type": "bytes4"
        }
      ],
      "name": "supportsInterface",
      "outputs": [
        {
          "internalType": "bool",
          "name": "",
          "type": "bool"
        }
      ],
      "stateMutability": "view",
      "type": "function",
      "constant": true
    },
    {
      "inputs": [],
      "name": "symbol",
      "outputs": [
        {
          "internalType": "string",
          "name": "",
          "type": "string"
        }
      ],
      "stateMutability": "view",
      "type": "function",
      "constant": true
    },
    {
      "inputs": [
        {
          "internalType": "address",
          "name": "from",
          "type": "address"
        },
        {
          "internalType": "address",
          "name": "to",
          "type": "address"
        },
        {
          "internalType": "uint256",
          "name": "tokenId",
          "type": "uint256"
        }
      ],
      "name": "transferFrom",
      "outputs": [],
      "stateMutability": "nonpayable",
      "type": "function"
    },
    {
      "inputs": [
        {
          "internalType": "string",
          "name": "uri",
          "type": "string"
        }
      ],
      "name": "createNFT",
      "outputs": [
        {
          "internalType": "uint256",
          "name": "",
          "type": "uint256"
        }
      ],
      "stateMutability": "nonpayable",
      "type": "function"
    },
    {
      "inputs": [
        {
          "internalType": "uint256",
          "name": "tokenId",
          "type": "uint256"
        }
      ],
      "name": "tokenURI",
      "outputs": [
        {
          "internalType": "string",
          "name": "",
          "type": "string"
        }
      ],
      "stateMutability": "view",
      "type": "function",
      "constant": true
    },
    {
      "inputs": [],
      "name": "getMarketplaceAddress",
      "outputs": [
        {
          "internalType": "address",
          "name": "",
          "type": "address"
        }
      ],
      "stateMutability": "view",
      "type": "function",
      "constant": true
    }
  ],
  "bytecode": "0x60806040523480156200001157600080fd5b5060405162002fc338038062002fc3833981810160405281019062000037919062000239565b6040518060400160405280600a81526020017f416e696d65546f6b656e000000000000000000000000000000000000000000008152506040518060400160405280600481526020017f414e544b000000000000000000000000000000000000000000000000000000008152508160009080519060200190620000bb9291906200011f565b508060019080519060200190620000d49291906200011f565b50505080600860006101000a81548173ffffffffffffffffffffffffffffffffffffffff021916908373ffffffffffffffffffffffffffffffffffffffff16021790555050620002d0565b8280546200012d906200029a565b90600052602060002090601f0160209004810192826200015157600085556200019d565b82601f106200016c57805160ff19168380011785556200019d565b828001600101855582156200019d579182015b828111156200019c5782518255916020019190600101906200017f565b5b509050620001ac9190620001b0565b5090565b5b80821115620001cb576000816000905550600101620001b1565b5090565b600080fd5b600073ffffffffffffffffffffffffffffffffffffffff82169050919050565b60006200020182620001d4565b9050919050565b6200021381620001f4565b81146200021f57600080fd5b50565b600081519050620002338162000208565b92915050565b600060208284031215620002525762000251620001cf565b5b6000620002628482850162000222565b91505092915050565b7f4e487b7100000000000000000000000000000000000000000000000000000000600052602260045260246000fd5b60006002820490506001821680620002b357607f821691505b60208210811415620002ca57620002c96200026b565b5b50919050565b612ce380620002e06000396000f3fe608060405234801561001057600080fd5b50600436106100f55760003560e01c806370a0823111610097578063bb8fe78511610066578063bb8fe78514610282578063c87b56dd146102a0578063da2ed03e146102d0578063e985e9c514610300576100f5565b806370a08231146101fc57806395d89b411461022c578063a22cb4651461024a578063b88d4fde14610266576100f5565b8063095ea7b3116100d3578063095ea7b31461017857806323b872dd1461019457806342842e0e146101b05780636352211e146101cc576100f5565b806301ffc9a7146100fa57806306fdde031461012a578063081812fc14610148575b600080fd5b610114600480360381019061010f9190611a58565b610330565b6040516101219190611aa0565b60405180910390f35b610132610412565b60405161013f9190611b54565b60405180910390f35b610162600480360381019061015d9190611bac565b6104a4565b60405161016f9190611c1a565b60405180910390f35b610192600480360381019061018d9190611c61565b610529565b005b6101ae60048036038101906101a99190611ca1565b610641565b005b6101ca60048036038101906101c59190611ca1565b6106a1565b005b6101e660048036038101906101e19190611bac565b6106c1565b6040516101f39190611c1a565b60405180910390f35b61021660048036038101906102119190611cf4565b610773565b6040516102239190611d30565b60405180910390f35b61023461082b565b6040516102419190611b54565b60405180910390f35b610264600480360381019061025f9190611d77565b6108bd565b005b610280600480360381019061027b9190611eec565b6108d3565b005b61028a610935565b6040516102979190611c1a565b60405180910390f35b6102ba60048036038101906102b59190611bac565b61095f565b6040516102c79190611b54565b60405180910390f35b6102ea60048036038101906102e59190612010565b6109b9565b6040516102f79190611d30565b60405180910390f35b61031a60048036038101906103159190612059565b610a1c565b6040516103279190611aa0565b60405180910390f35b60007f80ac58cd000000000000000000000000000000000000000000000000000000007bffffffffffffffffffffffffffffffffffffffffffffffffffffffff1916827bffffffffffffffffffffffffffffffffffffffffffffffffffffffff191614806103fb57507f5b5e139f000000000000000000000000000000000000000000000000000000007bffffffffffffffffffffffffffffffffffffffffffffffffffffffff1916827bffffffffffffffffffffffffffffffffffffffffffffffffffffffff1916145b8061040b575061040a82610ab0565b5b9050919050565b606060008054610421906120c8565b80601f016020809104026020016040519081016040528092919081815260200182805461044d906120c8565b801561049a5780601f1061046f5761010080835404028352916020019161049a565b820191906000526020600020905b81548152906001019060200180831161047d57829003601f168201915b5050505050905090565b60006104af82610b1a565b6104ee576040517f08c379a00000000000000000000000000000000000000000000000000000000081526004016104e59061216c565b60405180910390fd5b6004600083815260200190815260200160002060009054906101000a900473ffffffffffffffffffffffffffffffffffffffff169050919050565b6000610534826106c1565b90508073ffffffffffffffffffffffffffffffffffffffff168373ffffffffffffffffffffffffffffffffffffffff1614156105a5576040517f08c379a000000000000000000000000000000000000000000000000000000000815260040161059c906121fe565b60405180910390fd5b8073ffffffffffffffffffffffffffffffffffffffff166105c4610b86565b73ffffffffffffffffffffffffffffffffffffffff1614806105f357506105f2816105ed610b86565b610a1c565b5b610632576040517f08c379a000000000000000000000000000000000000000000000000000000000815260040161062990612290565b60405180910390fd5b61063c8383610b8e565b505050565b61065261064c610b86565b82610c47565b610691576040517f08c379a000000000000000000000000000000000000000000000000000000000815260040161068890612322565b60405180910390fd5b61069c838383610d25565b505050565b6106bc838383604051806020016040528060008152506108d3565b505050565b6000806002600084815260200190815260200160002060009054906101000a900473ffffffffffffffffffffffffffffffffffffffff169050600073ffffffffffffffffffffffffffffffffffffffff168173ffffffffffffffffffffffffffffffffffffffff16141561076a576040517f08c379a0000000000000000000000000000000000000000000000000000000008152600401610761906123b4565b60405180910390fd5b80915050919050565b60008073ffffffffffffffffffffffffffffffffffffffff168273ffffffffffffffffffffffffffffffffffffffff1614156107e4576040517f08c379a00000000000000000000000000000000000000000000000000000000081526004016107db90612446565b60405180910390fd5b600360008373ffffffffffffffffffffffffffffffffffffffff1673ffffffffffffffffffffffffffffffffffffffff168152602001908152602001600020549050919050565b60606001805461083a906120c8565b80601f0160208091040260200160405190810160405280929190818152602001828054610866906120c8565b80156108b35780601f10610888576101008083540402835291602001916108b3565b820191906000526020600020905b81548152906001019060200180831161089657829003601f168201915b5050505050905090565b6108cf6108c8610b86565b8383610f81565b5050565b6108e46108de610b86565b83610c47565b610923576040517f08c379a000000000000000000000000000000000000000000000000000000000815260040161091a90612322565b60405180910390fd5b61092f848484846110ee565b50505050565b6000600860009054906101000a900473ffffffffffffffffffffffffffffffffffffffff16905090565b606061096a82610b1a565b6109a9576040517f08c379a00000000000000000000000000000000000000000000000000000000081526004016109a0906124d8565b60405180910390fd5b6109b28261114a565b9050919050565b60006109c5600761129c565b60006109d160076112b2565b90506109dd33826112c0565b6109e781846112de565b610a13600860009054906101000a900473ffffffffffffffffffffffffffffffffffffffff1682610529565b80915050919050565b6000600560008473ffffffffffffffffffffffffffffffffffffffff1673ffffffffffffffffffffffffffffffffffffffff16815260200190815260200160002060008373ffffffffffffffffffffffffffffffffffffffff1673ffffffffffffffffffffffffffffffffffffffff16815260200190815260200160002060009054906101000a900460ff16905092915050565b60007f01ffc9a7000000000000000000000000000000000000000000000000000000007bffffffffffffffffffffffffffffffffffffffffffffffffffffffff1916827bffffffffffffffffffffffffffffffffffffffffffffffffffffffff1916149050919050565b60008073ffffffffffffffffffffffffffffffffffffffff166002600084815260200190815260200160002060009054906101000a900473ffffffffffffffffffffffffffffffffffffffff1673ffffffffffffffffffffffffffffffffffffffff1614159050919050565b600033905090565b816004600083815260200190815260200160002060006101000a81548173ffffffffffffffffffffffffffffffffffffffff021916908373ffffffffffffffffffffffffffffffffffffffff160217905550808273ffffffffffffffffffffffffffffffffffffffff16610c01836106c1565b73ffffffffffffffffffffffffffffffffffffffff167f8c5be1e5ebec7d5bd14f71427d1e84f3dd0314c0f7b2291e5b200ac8c7c3b92560405160405180910390a45050565b6000610c5282610b1a565b610c91576040517f08c379a0000000000000000000000000000000000000000000000000000000008152600401610c889061256a565b60405180910390fd5b6000610c9c836106c1565b90508073ffffffffffffffffffffffffffffffffffffffff168473ffffffffffffffffffffffffffffffffffffffff161480610d0b57508373ffffffffffffffffffffffffffffffffffffffff16610cf3846104a4565b73ffffffffffffffffffffffffffffffffffffffff16145b80610d1c5750610d1b8185610a1c565b5b91505092915050565b8273ffffffffffffffffffffffffffffffffffffffff16610d45826106c1565b73ffffffffffffffffffffffffffffffffffffffff1614610d9b576040517f08c379a0000000000000000000000000000000000000000000000000000000008152600401610d92906125fc565b60405180910390fd5b600073ffffffffffffffffffffffffffffffffffffffff168273ffffffffffffffffffffffffffffffffffffffff161415610e0b576040517f08c379a0000000000000000000000000000000000000000000000000000000008152600401610e029061268e565b60405180910390fd5b610e16838383611352565b610e21600082610b8e565b6001600360008573ffffffffffffffffffffffffffffffffffffffff1673ffffffffffffffffffffffffffffffffffffffff1681526020019081526020016000206000828254610e7191906126dd565b925050819055506001600360008473ffffffffffffffffffffffffffffffffffffffff1673ffffffffffffffffffffffffffffffffffffffff1681526020019081526020016000206000828254610ec89190612711565b92505081905550816002600083815260200190815260200160002060006101000a81548173ffffffffffffffffffffffffffffffffffffffff021916908373ffffffffffffffffffffffffffffffffffffffff160217905550808273ffffffffffffffffffffffffffffffffffffffff168473ffffffffffffffffffffffffffffffffffffffff167fddf252ad1be2c89b69c2b068fc378daa952ba7f163c4a11628f55a4df523b3ef60405160405180910390a4505050565b8173ffffffffffffffffffffffffffffffffffffffff168373ffffffffffffffffffffffffffffffffffffffff161415610ff0576040517f08c379a0000000000000000000000000000000000000000000000000000000008152600401610fe7906127b3565b60405180910390fd5b80600560008573ffffffffffffffffffffffffffffffffffffffff1673ffffffffffffffffffffffffffffffffffffffff16815260200190815260200160002060008473ffffffffffffffffffffffffffffffffffffffff1673ffffffffffffffffffffffffffffffffffffffff16815260200190815260200160002060006101000a81548160ff0219169083151502179055508173ffffffffffffffffffffffffffffffffffffffff168373ffffffffffffffffffffffffffffffffffffffff167f17307eab39ab6107e8899845ad3d59bd9653f200f220920489ca2b5937696c31836040516110e19190611aa0565b60405180910390a3505050565b6110f9848484610d25565b61110584848484611357565b611144576040517f08c379a000000000000000000000000000000000000000000000000000000000815260040161113b90612845565b60405180910390fd5b50505050565b606061115582610b1a565b611194576040517f08c379a000000000000000000000000000000000000000000000000000000000815260040161118b906124d8565b60405180910390fd5b60006006600084815260200190815260200160002080546111b4906120c8565b80601f01602080910402602001604051908101604052809291908181526020018280546111e0906120c8565b801561122d5780601f106112025761010080835404028352916020019161122d565b820191906000526020600020905b81548152906001019060200180831161121057829003601f168201915b50505050509050600061123e6114ee565b9050600081511415611254578192505050611297565b6000825111156112895780826040516020016112719291906128a1565b60405160208183030381529060405292505050611297565b61129284611505565b925050505b919050565b6001816000016000828254019250508190555050565b600081600001549050919050565b6112da8282604051806020016040528060008152506115ac565b5050565b6112e782610b1a565b611326576040517f08c379a000000000000000000000000000000000000000000000000000000000815260040161131d90612937565b60405180910390fd5b8060066000848152602001908152602001600020908051906020019061134d929190611949565b505050565b505050565b60006113788473ffffffffffffffffffffffffffffffffffffffff16611607565b156114e1578373ffffffffffffffffffffffffffffffffffffffff1663150b7a026113a1610b86565b8786866040518563ffffffff1660e01b81526004016113c394939291906129ac565b602060405180830381600087803b1580156113dd57600080fd5b505af192505050801561140e57506040513d601f19601f8201168201806040525081019061140b9190612a0d565b60015b611491573d806000811461143e576040519150601f19603f3d011682016040523d82523d6000602084013e611443565b606091505b50600081511415611489576040517f08c379a000000000000000000000000000000000000000000000000000000000815260040161148090612845565b60405180910390fd5b805181602001fd5b63150b7a0260e01b7bffffffffffffffffffffffffffffffffffffffffffffffffffffffff1916817bffffffffffffffffffffffffffffffffffffffffffffffffffffffff1916149150506114e6565b600190505b949350505050565b606060405180602001604052806000815250905090565b606061151082610b1a565b61154f576040517f08c379a000000000000000000000000000000000000000000000000000000000815260040161154690612aac565b60405180910390fd5b60006115596114ee565b9050600081511161157957604051806020016040528060008152506115a4565b806115838461161a565b6040516020016115949291906128a1565b6040516020818303038152906040525b915050919050565b6115b6838361177b565b6115c36000848484611357565b611602576040517f08c379a00000000000000000000000000000000000000000000000000000000081526004016115f990612845565b60405180910390fd5b505050565b600080823b905060008111915050919050565b60606000821415611662576040518060400160405280600181526020017f30000000000000000000000000000000000000000000000000000000000000008152509050611776565b600082905060005b6000821461169457808061167d90612acc565b915050600a8261168d9190612b44565b915061166a565b60008167ffffffffffffffff8111156116b0576116af611dc1565b5b6040519080825280601f01601f1916602001820160405280156116e25781602001600182028036833780820191505090505b5090505b6000851461176f576001826116fb91906126dd565b9150600a8561170a9190612b75565b60306117169190612711565b60f81b81838151811061172c5761172b612ba6565b5b60200101907effffffffffffffffffffffffffffffffffffffffffffffffffffffffffffff1916908160001a905350600a856117689190612b44565b94506116e6565b8093505050505b919050565b600073ffffffffffffffffffffffffffffffffffffffff168273ffffffffffffffffffffffffffffffffffffffff1614156117eb576040517f08c379a00000000000000000000000000000000000000000000000000000000081526004016117e290612c21565b60405180910390fd5b6117f481610b1a565b15611834576040517f08c379a000000000000000000000000000000000000000000000000000000000815260040161182b90612c8d565b60405180910390fd5b61184060008383611352565b6001600360008473ffffffffffffffffffffffffffffffffffffffff1673ffffffffffffffffffffffffffffffffffffffff16815260200190815260200160002060008282546118909190612711565b92505081905550816002600083815260200190815260200160002060006101000a81548173ffffffffffffffffffffffffffffffffffffffff021916908373ffffffffffffffffffffffffffffffffffffffff160217905550808273ffffffffffffffffffffffffffffffffffffffff16600073ffffffffffffffffffffffffffffffffffffffff167fddf252ad1be2c89b69c2b068fc378daa952ba7f163c4a11628f55a4df523b3ef60405160405180910390a45050565b828054611955906120c8565b90600052602060002090601f01602090048101928261197757600085556119be565b82601f1061199057805160ff19168380011785556119be565b828001600101855582156119be579182015b828111156119bd5782518255916020019190600101906119a2565b5b5090506119cb91906119cf565b5090565b5b808211156119e85760008160009055506001016119d0565b5090565b6000604051905090565b600080fd5b600080fd5b60007fffffffff0000000000000000000000000000000000000000000000000000000082169050919050565b611a3581611a00565b8114611a4057600080fd5b50565b600081359050611a5281611a2c565b92915050565b600060208284031215611a6e57611a6d6119f6565b5b6000611a7c84828501611a43565b91505092915050565b60008115159050919050565b611a9a81611a85565b82525050565b6000602082019050611ab56000830184611a91565b92915050565b600081519050919050565b600082825260208201905092915050565b60005b83811015611af5578082015181840152602081019050611ada565b83811115611b04576000848401525b50505050565b6000601f19601f8301169050919050565b6000611b2682611abb565b611b308185611ac6565b9350611b40818560208601611ad7565b611b4981611b0a565b840191505092915050565b60006020820190508181036000830152611b6e8184611b1b565b905092915050565b6000819050919050565b611b8981611b76565b8114611b9457600080fd5b50565b600081359050611ba681611b80565b92915050565b600060208284031215611bc257611bc16119f6565b5b6000611bd084828501611b97565b91505092915050565b600073ffffffffffffffffffffffffffffffffffffffff82169050919050565b6000611c0482611bd9565b9050919050565b611c1481611bf9565b82525050565b6000602082019050611c2f6000830184611c0b565b92915050565b611c3e81611bf9565b8114611c4957600080fd5b50565b600081359050611c5b81611c35565b92915050565b60008060408385031215611c7857611c776119f6565b5b6000611c8685828601611c4c565b9250506020611c9785828601611b97565b9150509250929050565b600080600060608486031215611cba57611cb96119f6565b5b6000611cc886828701611c4c565b9350506020611cd986828701611c4c565b9250506040611cea86828701611b97565b9150509250925092565b600060208284031215611d0a57611d096119f6565b5b6000611d1884828501611c4c565b91505092915050565b611d2a81611b76565b82525050565b6000602082019050611d456000830184611d21565b92915050565b611d5481611a85565b8114611d5f57600080fd5b50565b600081359050611d7181611d4b565b92915050565b60008060408385031215611d8e57611d8d6119f6565b5b6000611d9c85828601611c4c565b9250506020611dad85828601611d62565b9150509250929050565b600080fd5b600080fd5b7f4e487b7100000000000000000000000000000000000000000000000000000000600052604160045260246000fd5b611df982611b0a565b810181811067ffffffffffffffff82111715611e1857611e17611dc1565b5b80604052505050565b6000611e2b6119ec565b9050611e378282611df0565b919050565b600067ffffffffffffffff821115611e5757611e56611dc1565b5b611e6082611b0a565b9050602081019050919050565b82818337600083830152505050565b6000611e8f611e8a84611e3c565b611e21565b905082815260208101848484011115611eab57611eaa611dbc565b5b611eb6848285611e6d565b509392505050565b600082601f830112611ed357611ed2611db7565b5b8135611ee3848260208601611e7c565b91505092915050565b60008060008060808587031215611f0657611f056119f6565b5b6000611f1487828801611c4c565b9450506020611f2587828801611c4c565b9350506040611f3687828801611b97565b925050606085013567ffffffffffffffff811115611f5757611f566119fb565b5b611f6387828801611ebe565b91505092959194509250565b600067ffffffffffffffff821115611f8a57611f89611dc1565b5b611f9382611b0a565b9050602081019050919050565b6000611fb3611fae84611f6f565b611e21565b905082815260208101848484011115611fcf57611fce611dbc565b5b611fda848285611e6d565b509392505050565b600082601f830112611ff757611ff6611db7565b5b8135612007848260208601611fa0565b91505092915050565b600060208284031215612026576120256119f6565b5b600082013567ffffffffffffffff811115612044576120436119fb565b5b61205084828501611fe2565b91505092915050565b600080604083850312156120705761206f6119f6565b5b600061207e85828601611c4c565b925050602061208f85828601611c4c565b9150509250929050565b7f4e487b7100000000000000000000000000000000000000000000000000000000600052602260045260246000fd5b600060028204905060018216806120e057607f821691505b602082108114156120f4576120f3612099565b5b50919050565b7f4552433732313a20617070726f76656420717565727920666f72206e6f6e657860008201527f697374656e7420746f6b656e0000000000000000000000000000000000000000602082015250565b6000612156602c83611ac6565b9150612161826120fa565b604082019050919050565b6000602082019050818103600083015261218581612149565b9050919050565b7f4552433732313a20617070726f76616c20746f2063757272656e74206f776e6560008201527f7200000000000000000000000000000000000000000000000000000000000000602082015250565b60006121e8602183611ac6565b91506121f38261218c565b604082019050919050565b60006020820190508181036000830152612217816121db565b9050919050565b7f4552433732313a20617070726f76652063616c6c6572206973206e6f74206f7760008201527f6e6572206e6f7220617070726f76656420666f7220616c6c0000000000000000602082015250565b600061227a603883611ac6565b91506122858261221e565b604082019050919050565b600060208201905081810360008301526122a98161226d565b9050919050565b7f4552433732313a207472616e736665722063616c6c6572206973206e6f74206f60008201527f776e6572206e6f7220617070726f766564000000000000000000000000000000602082015250565b600061230c603183611ac6565b9150612317826122b0565b604082019050919050565b6000602082019050818103600083015261233b816122ff565b9050919050565b7f4552433732313a206f776e657220717565727920666f72206e6f6e657869737460008201527f656e7420746f6b656e0000000000000000000000000000000000000000000000602082015250565b600061239e602983611ac6565b91506123a982612342565b604082019050919050565b600060208201905081810360008301526123cd81612391565b9050919050565b7f4552433732313a2062616c616e636520717565727920666f7220746865207a6560008201527f726f206164647265737300000000000000000000000000000000000000000000602082015250565b6000612430602a83611ac6565b915061243b826123d4565b604082019050919050565b6000602082019050818103600083015261245f81612423565b9050919050565b7f45524337323155524953746f726167653a2055524920717565727920666f722060008201527f6e6f6e6578697374656e7420746f6b656e000000000000000000000000000000602082015250565b60006124c2603183611ac6565b91506124cd82612466565b604082019050919050565b600060208201905081810360008301526124f1816124b5565b9050919050565b7f4552433732313a206f70657261746f7220717565727920666f72206e6f6e657860008201527f697374656e7420746f6b656e0000000000000000000000000000000000000000602082015250565b6000612554602c83611ac6565b915061255f826124f8565b604082019050919050565b6000602082019050818103600083015261258381612547565b9050919050565b7f4552433732313a207472616e73666572206f6620746f6b656e2074686174206960008201527f73206e6f74206f776e0000000000000000000000000000000000000000000000602082015250565b60006125e6602983611ac6565b91506125f18261258a565b604082019050919050565b60006020820190508181036000830152612615816125d9565b9050919050565b7f4552433732313a207472616e7366657220746f20746865207a65726f2061646460008201527f7265737300000000000000000000000000000000000000000000000000000000602082015250565b6000612678602483611ac6565b91506126838261261c565b604082019050919050565b600060208201905081810360008301526126a78161266b565b9050919050565b7f4e487b7100000000000000000000000000000000000000000000000000000000600052601160045260246000fd5b60006126e882611b76565b91506126f383611b76565b925082821015612706576127056126ae565b5b828203905092915050565b600061271c82611b76565b915061272783611b76565b9250827fffffffffffffffffffffffffffffffffffffffffffffffffffffffffffffffff0382111561275c5761275b6126ae565b5b828201905092915050565b7f4552433732313a20617070726f766520746f2063616c6c657200000000000000600082015250565b600061279d601983611ac6565b91506127a882612767565b602082019050919050565b600060208201905081810360008301526127cc81612790565b9050919050565b7f4552433732313a207472616e7366657220746f206e6f6e20455243373231526560008201527f63656976657220696d706c656d656e7465720000000000000000000000000000602082015250565b600061282f603283611ac6565b915061283a826127d3565b604082019050919050565b6000602082019050818103600083015261285e81612822565b9050919050565b600081905092915050565b600061287b82611abb565b6128858185612865565b9350612895818560208601611ad7565b80840191505092915050565b60006128ad8285612870565b91506128b98284612870565b91508190509392505050565b7f45524337323155524953746f726167653a2055524920736574206f66206e6f6e60008201527f6578697374656e7420746f6b656e000000000000000000000000000000000000602082015250565b6000612921602e83611ac6565b915061292c826128c5565b604082019050919050565b6000602082019050818103600083015261295081612914565b9050919050565b600081519050919050565b600082825260208201905092915050565b600061297e82612957565b6129888185612962565b9350612998818560208601611ad7565b6129a181611b0a565b840191505092915050565b60006080820190506129c16000830187611c0b565b6129ce6020830186611c0b565b6129db6040830185611d21565b81810360608301526129ed8184612973565b905095945050505050565b600081519050612a0781611a2c565b92915050565b600060208284031215612a2357612a226119f6565b5b6000612a31848285016129f8565b91505092915050565b7f4552433732314d657461646174613a2055524920717565727920666f72206e6f60008201527f6e6578697374656e7420746f6b656e0000000000000000000000000000000000602082015250565b6000612a96602f83611ac6565b9150612aa182612a3a565b604082019050919050565b60006020820190508181036000830152612ac581612a89565b9050919050565b6000612ad782611b76565b91507fffffffffffffffffffffffffffffffffffffffffffffffffffffffffffffffff821415612b0a57612b096126ae565b5b600182019050919050565b7f4e487b7100000000000000000000000000000000000000000000000000000000600052601260045260246000fd5b6000612b4f82611b76565b9150612b5a83611b76565b925082612b6a57612b69612b15565b5b828204905092915050565b6000612b8082611b76565b9150612b8b83611b76565b925082612b9b57612b9a612b15565b5b828206905092915050565b7f4e487b7100000000000000000000000000000000000000000000000000000000600052603260045260246000fd5b7f4552433732313a206d696e7420746f20746865207a65726f2061646472657373600082015250565b6000612c0b602083611ac6565b9150612c1682612bd5565b602082019050919050565b60006020820190508181036000830152612c3a81612bfe565b9050919050565b7f4552433732313a20746f6b656e20616c7265616479206d696e74656400000000600082015250565b6000612c77601c83611ac6565b9150612c8282612c41565b602082019050919050565b60006020820190508181036000830152612ca681612c6a565b905091905056fea264697066735822122066eb60192dae4921f46044d72cd3d7c886a108bad2aa3c0609f05eceb745db7764736f6c63430008090033",
  "immutableReferences": {},
  "source": "// SPDX-License-Identifier: MIT\npragma solidity 0.8.9;\n\nimport \"@openzeppelin/contracts/token/ERC721/ERC721.sol\";\nimport \"@openzeppelin/contracts/token/ERC721/extensions/ERC721URIStorage.sol\";\nimport \"@openzeppelin/contracts/utils/Counters.sol\";\n\ncontract AnimeNFT is ERC721, ERC721URIStorage{\n  using Counters for Counters.Counter;\n\n  Counters.Counter private _tokenIdCounter;\n  address private marketplace;\n\n  constructor(address marketplaceAddress) ERC721(\"AnimeToken\", \"ANTK\") {\n    marketplace = marketplaceAddress;\n  }\n\n  function createNFT(string memory uri) public returns(uint256){\n    _tokenIdCounter.increment();\n    uint256 tokenId = _tokenIdCounter.current();\n    _safeMint(msg.sender, tokenId);\n    _setTokenURI(tokenId, uri);\n    approve(marketplace, tokenId);\n    return tokenId;\n  }\n\n  function tokenURI(uint256 tokenId) public view override(ERC721, ERC721URIStorage) returns (string memory) {\n    require(_exists(tokenId),\"ERC721URIStorage: URI query for nonexistent token\");\n    return super.tokenURI(tokenId);\n  }\n\n  function getMarketplaceAddress() public view returns(address) {\n    return marketplace;\n  }\n  \n  // The following functions are overrides required by Solidity.\n\n  function _burn(uint256 tokenId) internal override(ERC721, ERC721URIStorage) {\n    require(_exists(tokenId),\"burn nonexistent token\");\n    super._burn(tokenId);\n  }\n}",
  "sourcePath": "/home/sui41/Documents/cryptogig/aSAPhustle/blockchain-developer-bootcamp-final-project/contracts/AnimeNFT.sol",
  "compiler": {
    "name": "solc",
    "version": "0.8.9+commit.e5eed63a.Emscripten.clang"
  },
  "schemaVersion": "3.4.3",
  "updatedAt": "2022-01-25T05:22:17.351Z",
  "networkType": "ethereum",
  "devdoc": {
    "kind": "dev",
    "methods": {
      "approve(address,uint256)": {
        "details": "See {IERC721-approve}."
      },
      "balanceOf(address)": {
        "details": "See {IERC721-balanceOf}."
      },
      "getApproved(uint256)": {
        "details": "See {IERC721-getApproved}."
      },
      "isApprovedForAll(address,address)": {
        "details": "See {IERC721-isApprovedForAll}."
      },
      "name()": {
        "details": "See {IERC721Metadata-name}."
      },
      "ownerOf(uint256)": {
        "details": "See {IERC721-ownerOf}."
      },
      "safeTransferFrom(address,address,uint256)": {
        "details": "See {IERC721-safeTransferFrom}."
      },
      "safeTransferFrom(address,address,uint256,bytes)": {
        "details": "See {IERC721-safeTransferFrom}."
      },
      "setApprovalForAll(address,bool)": {
        "details": "See {IERC721-setApprovalForAll}."
      },
      "supportsInterface(bytes4)": {
        "details": "See {IERC165-supportsInterface}."
      },
      "symbol()": {
        "details": "See {IERC721Metadata-symbol}."
      },
      "transferFrom(address,address,uint256)": {
        "details": "See {IERC721-transferFrom}."
      }
    },
    "version": 1
  },
  "userdoc": {
    "kind": "user",
    "methods": {},
    "version": 1
  }
}