{
  "contractName": "NFTMarketplace",
  "abi": [
    {
      "inputs": [
        {
          "internalType": "uint256",
          "name": "_listingPrice",
          "type": "uint256"
        }
      ],
      "stateMutability": "nonpayable",
      "type": "constructor"
    },
    {
      "anonymous": false,
      "inputs": [
        {
          "indexed": false,
          "internalType": "address",
          "name": "account",
          "type": "address"
        }
      ],
      "name": "Paused",
      "type": "event"
    },
    {
      "anonymous": false,
      "inputs": [
        {
          "indexed": true,
          "internalType": "bytes32",
          "name": "role",
          "type": "bytes32"
        },
        {
          "indexed": true,
          "internalType": "bytes32",
          "name": "previousAdminRole",
          "type": "bytes32"
        },
        {
          "indexed": true,
          "internalType": "bytes32",
          "name": "newAdminRole",
          "type": "bytes32"
        }
      ],
      "name": "RoleAdminChanged",
      "type": "event"
    },
    {
      "anonymous": false,
      "inputs": [
        {
          "indexed": true,
          "internalType": "bytes32",
          "name": "role",
          "type": "bytes32"
        },
        {
          "indexed": true,
          "internalType": "address",
          "name": "account",
          "type": "address"
        },
        {
          "indexed": true,
          "internalType": "address",
          "name": "sender",
          "type": "address"
        }
      ],
      "name": "RoleGranted",
      "type": "event"
    },
    {
      "anonymous": false,
      "inputs": [
        {
          "indexed": true,
          "internalType": "bytes32",
          "name": "role",
          "type": "bytes32"
        },
        {
          "indexed": true,
          "internalType": "address",
          "name": "account",
          "type": "address"
        },
        {
          "indexed": true,
          "internalType": "address",
          "name": "sender",
          "type": "address"
        }
      ],
      "name": "RoleRevoked",
      "type": "event"
    },
    {
      "anonymous": false,
      "inputs": [
        {
          "indexed": false,
          "internalType": "address",
          "name": "account",
          "type": "address"
        }
      ],
      "name": "Unpaused",
      "type": "event"
    },
    {
      "anonymous": false,
      "inputs": [
        {
          "indexed": false,
          "internalType": "uint256",
          "name": "itemId",
          "type": "uint256"
        },
        {
          "indexed": false,
          "internalType": "uint256",
          "name": "price",
          "type": "uint256"
        },
        {
          "indexed": false,
          "internalType": "address",
          "name": "seller",
          "type": "address"
        }
      ],
      "name": "logListedForSale",
      "type": "event"
    },
    {
      "anonymous": false,
      "inputs": [
        {
          "indexed": false,
          "internalType": "uint256",
          "name": "newListingPrice",
          "type": "uint256"
        }
      ],
      "name": "logListingPriceChanged",
      "type": "event"
    },
    {
      "anonymous": false,
      "inputs": [
        {
          "indexed": false,
          "internalType": "uint256",
          "name": "itemID",
          "type": "uint256"
        },
        {
          "indexed": false,
          "internalType": "uint256",
          "name": "tokenID",
          "type": "uint256"
        },
        {
          "indexed": true,
          "internalType": "enum NFTMarketplace.State",
          "name": "itemState",
          "type": "uint8"
        },
        {
          "indexed": false,
          "internalType": "address payable",
          "name": "buyer",
          "type": "address"
        },
        {
          "indexed": false,
          "internalType": "address payable",
          "name": "seller",
          "type": "address"
        },
        {
          "indexed": false,
          "internalType": "address",
          "name": "nft",
          "type": "address"
        },
        {
          "indexed": false,
          "internalType": "bool",
          "name": "isSold",
          "type": "bool"
        },
        {
          "indexed": true,
          "internalType": "uint256",
          "name": "price",
          "type": "uint256"
        }
      ],
      "name": "logPending",
      "type": "event"
    },
    {
      "anonymous": false,
      "inputs": [
        {
          "indexed": false,
          "internalType": "uint256",
          "name": "itemId",
          "type": "uint256"
        },
        {
          "indexed": false,
          "internalType": "uint256",
          "name": "newPrice",
          "type": "uint256"
        }
      ],
      "name": "logPriceChanged",
      "type": "event"
    },
    {
      "anonymous": false,
      "inputs": [
        {
          "indexed": false,
          "internalType": "uint256",
          "name": "itemId",
          "type": "uint256"
        }
      ],
      "name": "logRemoved",
      "type": "event"
    },
    {
      "anonymous": false,
      "inputs": [
        {
          "indexed": false,
          "internalType": "uint256",
          "name": "itemId",
          "type": "uint256"
        },
        {
          "indexed": false,
          "internalType": "uint256",
          "name": "price",
          "type": "uint256"
        },
        {
          "indexed": false,
          "internalType": "address",
          "name": "buyer",
          "type": "address"
        },
        {
          "indexed": false,
          "internalType": "address",
          "name": "seller",
          "type": "address"
        }
      ],
      "name": "logSold",
      "type": "event"
    },
    {
      "stateMutability": "payable",
      "type": "fallback",
      "payable": true
    },
    {
      "inputs": [],
      "name": "ADMIN_ROLE",
      "outputs": [
        {
          "internalType": "bytes32",
          "name": "",
          "type": "bytes32"
        }
      ],
      "stateMutability": "view",
      "type": "function",
      "constant": true
    },
    {
      "inputs": [],
      "name": "DEFAULT_ADMIN_ROLE",
      "outputs": [
        {
          "internalType": "bytes32",
          "name": "",
          "type": "bytes32"
        }
      ],
      "stateMutability": "view",
      "type": "function",
      "constant": true
    },
    {
      "inputs": [],
      "name": "VALIDATOR_ROLE",
      "outputs": [
        {
          "internalType": "bytes32",
          "name": "",
          "type": "bytes32"
        }
      ],
      "stateMutability": "view",
      "type": "function",
      "constant": true
    },
    {
      "inputs": [
        {
          "internalType": "bytes32",
          "name": "role",
          "type": "bytes32"
        }
      ],
      "name": "getRoleAdmin",
      "outputs": [
        {
          "internalType": "bytes32",
          "name": "",
          "type": "bytes32"
        }
      ],
      "stateMutability": "view",
      "type": "function",
      "constant": true
    },
    {
      "inputs": [
        {
          "internalType": "bytes32",
          "name": "role",
          "type": "bytes32"
        },
        {
          "internalType": "address",
          "name": "account",
          "type": "address"
        }
      ],
      "name": "grantRole",
      "outputs": [],
      "stateMutability": "nonpayable",
      "type": "function"
    },
    {
      "inputs": [
        {
          "internalType": "bytes32",
          "name": "role",
          "type": "bytes32"
        },
        {
          "internalType": "address",
          "name": "account",
          "type": "address"
        }
      ],
      "name": "hasRole",
      "outputs": [
        {
          "internalType": "bool",
          "name": "",
          "type": "bool"
        }
      ],
      "stateMutability": "view",
      "type": "function",
      "constant": true
    },
    {
      "inputs": [],
      "name": "paused",
      "outputs": [
        {
          "internalType": "bool",
          "name": "",
          "type": "bool"
        }
      ],
      "stateMutability": "view",
      "type": "function",
      "constant": true
    },
    {
      "inputs": [
        {
          "internalType": "bytes32",
          "name": "role",
          "type": "bytes32"
        },
        {
          "internalType": "address",
          "name": "account",
          "type": "address"
        }
      ],
      "name": "renounceRole",
      "outputs": [],
      "stateMutability": "nonpayable",
      "type": "function"
    },
    {
      "inputs": [
        {
          "internalType": "bytes32",
          "name": "role",
          "type": "bytes32"
        },
        {
          "internalType": "address",
          "name": "account",
          "type": "address"
        }
      ],
      "name": "revokeRole",
      "outputs": [],
      "stateMutability": "nonpayable",
      "type": "function"
    },
    {
      "inputs": [
        {
          "internalType": "bytes4",
          "name": "interfaceId",
          "type": "bytes4"
        }
      ],
      "name": "supportsInterface",
      "outputs": [
        {
          "internalType": "bool",
          "name": "",
          "type": "bool"
        }
      ],
      "stateMutability": "view",
      "type": "function",
      "constant": true
    },
    {
      "stateMutability": "payable",
      "type": "receive",
      "payable": true
    },
    {
      "inputs": [
        {
          "internalType": "address",
          "name": "nftContract",
          "type": "address"
        },
        {
          "internalType": "uint256",
          "name": "_tokenID",
          "type": "uint256"
        },
        {
          "internalType": "uint256",
          "name": "_price",
          "type": "uint256"
        }
      ],
      "name": "createListingRequest",
      "outputs": [
        {
          "internalType": "uint256",
          "name": "",
          "type": "uint256"
        }
      ],
      "stateMutability": "payable",
      "type": "function",
      "payable": true
    },
    {
      "inputs": [
        {
          "internalType": "uint256",
          "name": "_itemId",
          "type": "uint256"
        }
      ],
      "name": "withdrawItem",
      "outputs": [],
      "stateMutability": "nonpayable",
      "type": "function"
    },
    {
      "inputs": [
        {
          "internalType": "uint256",
          "name": "_itemId",
          "type": "uint256"
        }
      ],
      "name": "BuyItem",
      "outputs": [],
      "stateMutability": "payable",
      "type": "function",
      "payable": true
    },
    {
      "inputs": [
        {
          "internalType": "uint256",
          "name": "_itemId",
          "type": "uint256"
        }
      ],
      "name": "acceptItem",
      "outputs": [],
      "stateMutability": "nonpayable",
      "type": "function"
    },
    {
      "inputs": [
        {
          "internalType": "uint256",
          "name": "_itemId",
          "type": "uint256"
        }
      ],
      "name": "rejectItem",
      "outputs": [],
      "stateMutability": "nonpayable",
      "type": "function"
    },
    {
      "inputs": [
        {
          "internalType": "uint256",
          "name": "_itemId",
          "type": "uint256"
        },
        {
          "internalType": "uint256",
          "name": "_newPrice",
          "type": "uint256"
        }
      ],
      "name": "changeItemPrice",
      "outputs": [],
      "stateMutability": "nonpayable",
      "type": "function"
    },
    {
      "inputs": [],
      "name": "getNumberOfPendingNFTS",
      "outputs": [
        {
          "internalType": "uint256",
          "name": "",
          "type": "uint256"
        }
      ],
      "stateMutability": "view",
      "type": "function",
      "constant": true
    },
    {
      "inputs": [],
      "name": "getNumberOfSoldNFTS",
      "outputs": [
        {
          "internalType": "uint256",
          "name": "",
          "type": "uint256"
        }
      ],
      "stateMutability": "view",
      "type": "function",
      "constant": true
    },
    {
      "inputs": [],
      "name": "getNumberOfAllNFTS",
      "outputs": [
        {
          "internalType": "uint256",
          "name": "",
          "type": "uint256"
        }
      ],
      "stateMutability": "view",
      "type": "function",
      "constant": true
    },
    {
      "inputs": [],
      "name": "getAllListedItems",
      "outputs": [
        {
          "components": [
            {
              "internalType": "uint256",
              "name": "itemID",
              "type": "uint256"
            },
            {
              "internalType": "uint256",
              "name": "tokenID",
              "type": "uint256"
            },
            {
              "internalType": "enum NFTMarketplace.State",
              "name": "itemState",
              "type": "uint8"
            },
            {
              "internalType": "address payable",
              "name": "buyer",
              "type": "address"
            },
            {
              "internalType": "address payable",
              "name": "seller",
              "type": "address"
            },
            {
              "internalType": "contract AnimeNFT",
              "name": "nft",
              "type": "address"
            },
            {
              "internalType": "bool",
              "name": "isSold",
              "type": "bool"
            },
            {
              "internalType": "uint256",
              "name": "price",
              "type": "uint256"
            }
          ],
          "internalType": "struct NFTMarketplace.MarketItem[]",
          "name": "",
          "type": "tuple[]"
        }
      ],
      "stateMutability": "view",
      "type": "function",
      "constant": true
    },
    {
      "inputs": [],
      "name": "getAllSoldItems",
      "outputs": [
        {
          "components": [
            {
              "internalType": "uint256",
              "name": "itemID",
              "type": "uint256"
            },
            {
              "internalType": "uint256",
              "name": "tokenID",
              "type": "uint256"
            },
            {
              "internalType": "enum NFTMarketplace.State",
              "name": "itemState",
              "type": "uint8"
            },
            {
              "internalType": "address payable",
              "name": "buyer",
              "type": "address"
            },
            {
              "internalType": "address payable",
              "name": "seller",
              "type": "address"
            },
            {
              "internalType": "contract AnimeNFT",
              "name": "nft",
              "type": "address"
            },
            {
              "internalType": "bool",
              "name": "isSold",
              "type": "bool"
            },
            {
              "internalType": "uint256",
              "name": "price",
              "type": "uint256"
            }
          ],
          "internalType": "struct NFTMarketplace.MarketItem[]",
          "name": "",
          "type": "tuple[]"
        }
      ],
      "stateMutability": "view",
      "type": "function",
      "constant": true
    },
    {
      "inputs": [],
      "name": "getAllPedningItems",
      "outputs": [
        {
          "components": [
            {
              "internalType": "uint256",
              "name": "itemID",
              "type": "uint256"
            },
            {
              "internalType": "uint256",
              "name": "tokenID",
              "type": "uint256"
            },
            {
              "internalType": "enum NFTMarketplace.State",
              "name": "itemState",
              "type": "uint8"
            },
            {
              "internalType": "address payable",
              "name": "buyer",
              "type": "address"
            },
            {
              "internalType": "address payable",
              "name": "seller",
              "type": "address"
            },
            {
              "internalType": "contract AnimeNFT",
              "name": "nft",
              "type": "address"
            },
            {
              "internalType": "bool",
              "name": "isSold",
              "type": "bool"
            },
            {
              "internalType": "uint256",
              "name": "price",
              "type": "uint256"
            }
          ],
          "internalType": "struct NFTMarketplace.MarketItem[]",
          "name": "",
          "type": "tuple[]"
        }
      ],
      "stateMutability": "view",
      "type": "function",
      "constant": true
    },
    {
      "inputs": [],
      "name": "getAllRemovedItems",
      "outputs": [
        {
          "components": [
            {
              "internalType": "uint256",
              "name": "itemID",
              "type": "uint256"
            },
            {
              "internalType": "uint256",
              "name": "tokenID",
              "type": "uint256"
            },
            {
              "internalType": "enum NFTMarketplace.State",
              "name": "itemState",
              "type": "uint8"
            },
            {
              "internalType": "address payable",
              "name": "buyer",
              "type": "address"
            },
            {
              "internalType": "address payable",
              "name": "seller",
              "type": "address"
            },
            {
              "internalType": "contract AnimeNFT",
              "name": "nft",
              "type": "address"
            },
            {
              "internalType": "bool",
              "name": "isSold",
              "type": "bool"
            },
            {
              "internalType": "uint256",
              "name": "price",
              "type": "uint256"
            }
          ],
          "internalType": "struct NFTMarketplace.MarketItem[]",
          "name": "",
          "type": "tuple[]"
        }
      ],
      "stateMutability": "view",
      "type": "function",
      "constant": true
    },
    {
      "inputs": [],
      "name": "getItemsCreated",
      "outputs": [
        {
          "components": [
            {
              "internalType": "uint256",
              "name": "itemID",
              "type": "uint256"
            },
            {
              "internalType": "uint256",
              "name": "tokenID",
              "type": "uint256"
            },
            {
              "internalType": "enum NFTMarketplace.State",
              "name": "itemState",
              "type": "uint8"
            },
            {
              "internalType": "address payable",
              "name": "buyer",
              "type": "address"
            },
            {
              "internalType": "address payable",
              "name": "seller",
              "type": "address"
            },
            {
              "internalType": "contract AnimeNFT",
              "name": "nft",
              "type": "address"
            },
            {
              "internalType": "bool",
              "name": "isSold",
              "type": "bool"
            },
            {
              "internalType": "uint256",
              "name": "price",
              "type": "uint256"
            }
          ],
          "internalType": "struct NFTMarketplace.MarketItem[]",
          "name": "",
          "type": "tuple[]"
        }
      ],
      "stateMutability": "view",
      "type": "function",
      "constant": true
    },
    {
      "inputs": [],
      "name": "getMyNFTS",
      "outputs": [
        {
          "components": [
            {
              "internalType": "uint256",
              "name": "itemID",
              "type": "uint256"
            },
            {
              "internalType": "uint256",
              "name": "tokenID",
              "type": "uint256"
            },
            {
              "internalType": "enum NFTMarketplace.State",
              "name": "itemState",
              "type": "uint8"
            },
            {
              "internalType": "address payable",
              "name": "buyer",
              "type": "address"
            },
            {
              "internalType": "address payable",
              "name": "seller",
              "type": "address"
            },
            {
              "internalType": "contract AnimeNFT",
              "name": "nft",
              "type": "address"
            },
            {
              "internalType": "bool",
              "name": "isSold",
              "type": "bool"
            },
            {
              "internalType": "uint256",
              "name": "price",
              "type": "uint256"
            }
          ],
          "internalType": "struct NFTMarketplace.MarketItem[]",
          "name": "",
          "type": "tuple[]"
        }
      ],
      "stateMutability": "view",
      "type": "function",
      "constant": true
    },
    {
      "inputs": [
        {
          "internalType": "address",
          "name": "newValidator",
          "type": "address"
        }
      ],
      "name": "grantValidator",
      "outputs": [],
      "stateMutability": "nonpayable",
      "type": "function"
    },
    {
      "inputs": [
        {
          "internalType": "address",
          "name": "ToBeRevokedValidator",
          "type": "address"
        }
      ],
      "name": "revokeValidator",
      "outputs": [],
      "stateMutability": "nonpayable",
      "type": "function"
    },
    {
      "inputs": [],
      "name": "getMarketplaceOwner",
      "outputs": [
        {
          "internalType": "address",
          "name": "",
          "type": "address"
        }
      ],
      "stateMutability": "view",
      "type": "function",
      "constant": true
    },
    {
      "inputs": [],
      "name": "getListingPrice",
      "outputs": [
        {
          "internalType": "uint256",
          "name": "",
          "type": "uint256"
        }
      ],
      "stateMutability": "view",
      "type": "function",
      "constant": true
    },
    {
      "inputs": [],
      "name": "Pause",
      "outputs": [],
      "stateMutability": "nonpayable",
      "type": "function"
    },
    {
      "inputs": [],
      "name": "Unpause",
      "outputs": [],
      "stateMutability": "nonpayable",
      "type": "function"
    },
    {
      "inputs": [
        {
          "internalType": "uint256",
          "name": "newListingPrice",
          "type": "uint256"
        }
      ],
      "name": "changeListingPrice",
      "outputs": [],
      "stateMutability": "nonpayable",
      "type": "function"
    },
    {
      "inputs": [
        {
          "internalType": "address",
          "name": "operator",
          "type": "address"
        },
        {
          "internalType": "address",
          "name": "from",
          "type": "address"
        },
        {
          "internalType": "uint256",
          "name": "tokenId",
          "type": "uint256"
        },
        {
          "internalType": "bytes",
          "name": "data",
          "type": "bytes"
        }
      ],
      "name": "onERC721Received",
      "outputs": [
        {
          "internalType": "bytes4",
          "name": "",
          "type": "bytes4"
        }
      ],
      "stateMutability": "pure",
      "type": "function",
      "constant": true
    }
  ],
  "bytecode": "0x60806040523480156200001157600080fd5b5060405162005b2838038062005b288339818101604052810190620000379190620003dd565b600180819055506000600260006101000a81548160ff02191690831515021790555033600660006101000a81548173ffffffffffffffffffffffffffffffffffffffff021916908373ffffffffffffffffffffffffffffffffffffffff16021790555080600781905550620000f57fa49807205ce4d355092ef5a8a18f56e8913cf4a201fbe287825b095693c21775600660009054906101000a900473ffffffffffffffffffffffffffffffffffffffff16620001a260201b60201c565b620001497f21702c8af46127c7fa207f89d0b0a8441bb32959a0ac7df790e9ab1a25c98926600660009054906101000a900473ffffffffffffffffffffffffffffffffffffffff16620001a260201b60201c565b6200019b7f21702c8af46127c7fa207f89d0b0a8441bb32959a0ac7df790e9ab1a25c989267fa49807205ce4d355092ef5a8a18f56e8913cf4a201fbe287825b095693c21775620001b860201b60201c565b506200040f565b620001b482826200021b60201b60201c565b5050565b6000620001cb836200030c60201b60201c565b905081600080858152602001908152602001600020600101819055508181847fbd79b86ffe0ab8e8776151514217cd7cacd52c909f66475c3af44e129f0b00ff60405160405180910390a4505050565b6200022d82826200032b60201b60201c565b6200030857600160008084815260200190815260200160002060000160008373ffffffffffffffffffffffffffffffffffffffff1673ffffffffffffffffffffffffffffffffffffffff16815260200190815260200160002060006101000a81548160ff021916908315150217905550620002ad6200039560201b60201c565b73ffffffffffffffffffffffffffffffffffffffff168173ffffffffffffffffffffffffffffffffffffffff16837f2f8788117e7eff1d82e926ec794901d17c78024a50270940304540a733656f0d60405160405180910390a45b5050565b6000806000838152602001908152602001600020600101549050919050565b600080600084815260200190815260200160002060000160008373ffffffffffffffffffffffffffffffffffffffff1673ffffffffffffffffffffffffffffffffffffffff16815260200190815260200160002060009054906101000a900460ff16905092915050565b600033905090565b600080fd5b6000819050919050565b620003b781620003a2565b8114620003c357600080fd5b50565b600081519050620003d781620003ac565b92915050565b600060208284031215620003f657620003f56200039d565b5b60006200040684828501620003c6565b91505092915050565b615709806200041f6000396000f3fe6080604052600436106101f25760003560e01c80636de002111161010d578063a7b19424116100a0578063d547741f1161006f578063d547741f146106bb578063e8b08f04146106e4578063e9e8e9621461070f578063fb01a4781461073a578063fd599a9014610763576101fc565b8063a7b1942414610613578063ba0f1d9c1461063c578063c49baebe14610665578063d118b53914610690576101fc565b80638d9a3e93116100dc5780638d9a3e931461055257806391d148541461057b578063a1701650146105b8578063a217fddf146105e8576101fc565b80636de00211146104cb57806375b238fc146104f45780637805862f1461051f578063884c644014610536576101fc565b80632f2ff15d116101855780633c064dff116101545780633c064dff14610435578063510bd2a2146104605780635c975abb146104895780636985a022146104b4576101fc565b80632f2ff15d1461038d57806336568abe146103b65780633777ebc6146103df5780633b1b1ad01461040a576101fc565b8063150b7a02116101c1578063150b7a02146102bd578063157c122f146102fa578063248a9ca3146103255780632eb1924714610362576101fc565b806301ffc9a714610201578063047564b71461023e5780630be10beb1461026757806312e8558514610292576101fc565b366101fc57600080fd5b600080fd5b34801561020d57600080fd5b5061022860048036038101906102239190614683565b61078e565b60405161023591906146cb565b60405180910390f35b34801561024a57600080fd5b5061026560048036038101906102609190614744565b610808565b005b34801561027357600080fd5b5061027c610949565b604051610289919061478a565b60405180910390f35b34801561029e57600080fd5b506102a76109d5565b6040516102b4919061478a565b60405180910390f35b3480156102c957600080fd5b506102e460048036038101906102df9190614836565b610a27565b6040516102f191906148cd565b60405180910390f35b34801561030657600080fd5b5061030f610a3c565b60405161031c91906148f7565b60405180910390f35b34801561033157600080fd5b5061034c60048036038101906103479190614948565b610a66565b6040516103599190614984565b60405180910390f35b34801561036e57600080fd5b50610377610a85565b6040516103849190614c06565b60405180910390f35b34801561039957600080fd5b506103b460048036038101906103af9190614c28565b610e1c565b005b3480156103c257600080fd5b506103dd60048036038101906103d89190614c28565b610e45565b005b3480156103eb57600080fd5b506103f4610ec8565b6040516104019190614c06565b60405180910390f35b34801561041657600080fd5b5061041f61125e565b60405161042c9190614c06565b60405180910390f35b34801561044157600080fd5b5061044a61160b565b604051610457919061478a565b60405180910390f35b34801561046c57600080fd5b5061048760048036038101906104829190614c68565b611697565b005b34801561049557600080fd5b5061049e6119f4565b6040516104ab91906146cb565b60405180910390f35b3480156104c057600080fd5b506104c9611a0b565b005b3480156104d757600080fd5b506104f260048036038101906104ed9190614c68565b611a90565b005b34801561050057600080fd5b50610509611d4c565b6040516105169190614984565b60405180910390f35b34801561052b57600080fd5b50610534611d70565b005b610550600480360381019061054b9190614c68565b611df4565b005b34801561055e57600080fd5b5061057960048036038101906105749190614c68565b612365565b005b34801561058757600080fd5b506105a2600480360381019061059d9190614c28565b6126cc565b6040516105af91906146cb565b60405180910390f35b6105d260048036038101906105cd9190614c95565b612736565b6040516105df919061478a565b60405180910390f35b3480156105f457600080fd5b506105fd612e18565b60405161060a9190614984565b60405180910390f35b34801561061f57600080fd5b5061063a60048036038101906106359190614ce8565b612e1f565b005b34801561064857600080fd5b50610663600480360381019061065e9190614c68565b613009565b005b34801561067157600080fd5b5061067a613117565b6040516106879190614984565b60405180910390f35b34801561069c57600080fd5b506106a561313b565b6040516106b29190614c06565b60405180910390f35b3480156106c757600080fd5b506106e260048036038101906106dd9190614c28565b61351b565b005b3480156106f057600080fd5b506106f9613544565b6040516107069190614c06565b60405180910390f35b34801561071b57600080fd5b50610724613916565b6040516107319190614c06565b60405180910390f35b34801561074657600080fd5b50610761600480360381019061075c9190614744565b613ce8565b005b34801561076f57600080fd5b50610778613e29565b604051610785919061478a565b60405180910390f35b60007f7965db0b000000000000000000000000000000000000000000000000000000007bffffffffffffffffffffffffffffffffffffffffffffffffffffffff1916827bffffffffffffffffffffffffffffffffffffffffffffffffffffffff19161480610801575061080082613eb5565b5b9050919050565b6108106119f4565b15610850576040517f08c379a000000000000000000000000000000000000000000000000000000000815260040161084790614d85565b60405180910390fd5b7fa49807205ce4d355092ef5a8a18f56e8913cf4a201fbe287825b095693c217756108828161087d613f1f565b613f27565b81600073ffffffffffffffffffffffffffffffffffffffff168173ffffffffffffffffffffffffffffffffffffffff1614156108bd57600080fd5b82600660009054906101000a900473ffffffffffffffffffffffffffffffffffffffff1673ffffffffffffffffffffffffffffffffffffffff168173ffffffffffffffffffffffffffffffffffffffff16141561091957600080fd5b6109437f21702c8af46127c7fa207f89d0b0a8441bb32959a0ac7df790e9ab1a25c989268561351b565b50505050565b60006109536119f4565b15610993576040517f08c379a000000000000000000000000000000000000000000000000000000000815260040161098a90614d85565b60405180910390fd5b7fa49807205ce4d355092ef5a8a18f56e8913cf4a201fbe287825b095693c217756109c5816109c0613f1f565b613f27565b6109cf6005613fc4565b91505090565b60006109df6119f4565b15610a1f576040517f08c379a0000000000000000000000000000000000000000000000000000000008152600401610a1690614d85565b60405180910390fd5b600754905090565b600063150b7a0260e01b905095945050505050565b6000600660009054906101000a900473ffffffffffffffffffffffffffffffffffffffff16905090565b6000806000838152602001908152602001600020600101549050919050565b6060610a8f6119f4565b15610acf576040517f08c379a0000000000000000000000000000000000000000000000000000000008152600401610ac690614d85565b60405180910390fd5b610af97f21702c8af46127c7fa207f89d0b0a8441bb32959a0ac7df790e9ab1a25c98926336126cc565b80610b2a5750610b297fa49807205ce4d355092ef5a8a18f56e8913cf4a201fbe287825b095693c21775336126cc565b5b610b3357600080fd5b6000610b3f6003613fc4565b90506000610b4d6004613fc4565b610b576003613fc4565b610b619190614dd4565b90506000808267ffffffffffffffff811115610b8057610b7f614e08565b5b604051908082528060200260200182016040528015610bb957816020015b610ba6614586565b815260200190600190039081610b9e5790505b50905060005b84811015610e115760006003811115610bdb57610bda6149da565b5b60086000600184610bec9190614e37565b815260200190815260200160002060020160009054906101000a900460ff166003811115610c1d57610c1c6149da565b5b1415610dfe576000600182610c329190614e37565b90506000600860008381526020019081526020016000209050806040518061010001604052908160008201548152602001600182015481526020016002820160009054906101000a900460ff166003811115610c9157610c906149da565b5b6003811115610ca357610ca26149da565b5b81526020016002820160019054906101000a900473ffffffffffffffffffffffffffffffffffffffff1673ffffffffffffffffffffffffffffffffffffffff1673ffffffffffffffffffffffffffffffffffffffff1681526020016003820160009054906101000a900473ffffffffffffffffffffffffffffffffffffffff1673ffffffffffffffffffffffffffffffffffffffff1673ffffffffffffffffffffffffffffffffffffffff1681526020016004820160009054906101000a900473ffffffffffffffffffffffffffffffffffffffff1673ffffffffffffffffffffffffffffffffffffffff1673ffffffffffffffffffffffffffffffffffffffff1681526020016004820160149054906101000a900460ff16151515158152602001600582015481525050848681518110610de157610de0614e8d565b5b6020026020010181905250600185610df99190614e37565b945050505b8080610e0990614ebc565b915050610bbf565b508094505050505090565b610e2582610a66565b610e3681610e31613f1f565b613f27565b610e408383613fd2565b505050565b610e4d613f1f565b73ffffffffffffffffffffffffffffffffffffffff168173ffffffffffffffffffffffffffffffffffffffff1614610eba576040517f08c379a0000000000000000000000000000000000000000000000000000000008152600401610eb190614f77565b60405180910390fd5b610ec482826140b2565b5050565b6060610ed26119f4565b15610f12576040517f08c379a0000000000000000000000000000000000000000000000000000000008152600401610f0990614d85565b60405180910390fd5b610f3c7f21702c8af46127c7fa207f89d0b0a8441bb32959a0ac7df790e9ab1a25c98926336126cc565b80610f6d5750610f6c7fa49807205ce4d355092ef5a8a18f56e8913cf4a201fbe287825b095693c21775336126cc565b5b610f7657600080fd5b6000610f826003613fc4565b90506000610f906004613fc4565b610f9a6003613fc4565b610fa49190614dd4565b90506000808267ffffffffffffffff811115610fc357610fc2614e08565b5b604051908082528060200260200182016040528015610ffc57816020015b610fe9614586565b815260200190600190039081610fe15790505b50905060005b848110156112535760038081111561101d5761101c6149da565b5b6008600060018461102e9190614e37565b815260200190815260200160002060020160009054906101000a900460ff16600381111561105f5761105e6149da565b5b14156112405760006001826110749190614e37565b90506000600860008381526020019081526020016000209050806040518061010001604052908160008201548152602001600182015481526020016002820160009054906101000a900460ff1660038111156110d3576110d26149da565b5b60038111156110e5576110e46149da565b5b81526020016002820160019054906101000a900473ffffffffffffffffffffffffffffffffffffffff1673ffffffffffffffffffffffffffffffffffffffff1673ffffffffffffffffffffffffffffffffffffffff1681526020016003820160009054906101000a900473ffffffffffffffffffffffffffffffffffffffff1673ffffffffffffffffffffffffffffffffffffffff1673ffffffffffffffffffffffffffffffffffffffff1681526020016004820160009054906101000a900473ffffffffffffffffffffffffffffffffffffffff1673ffffffffffffffffffffffffffffffffffffffff1673ffffffffffffffffffffffffffffffffffffffff1681526020016004820160149054906101000a900460ff1615151515815260200160058201548152505084868151811061122357611222614e8d565b5b602002602001018190525060018561123b9190614e37565b945050505b808061124b90614ebc565b915050611002565b508094505050505090565b60606112686119f4565b156112a8576040517f08c379a000000000000000000000000000000000000000000000000000000000815260040161129f90614d85565b60405180910390fd5b60006112b46003613fc4565b905060006112c26004613fc4565b6112cc6003613fc4565b6112d69190614dd4565b90506000808267ffffffffffffffff8111156112f5576112f4614e08565b5b60405190808252806020026020018201604052801561132e57816020015b61131b614586565b8152602001906001900390816113135790505b50905060005b8481101561160057600160038111156113505761134f6149da565b5b600860006001846113619190614e37565b815260200190815260200160002060020160009054906101000a900460ff166003811115611392576113916149da565b5b14801561140d5750600073ffffffffffffffffffffffffffffffffffffffff16600860006001846113c39190614e37565b815260200190815260200160002060020160019054906101000a900473ffffffffffffffffffffffffffffffffffffffff1673ffffffffffffffffffffffffffffffffffffffff16145b156115ed5760006001826114219190614e37565b90506000600860008381526020019081526020016000209050806040518061010001604052908160008201548152602001600182015481526020016002820160009054906101000a900460ff1660038111156114805761147f6149da565b5b6003811115611492576114916149da565b5b81526020016002820160019054906101000a900473ffffffffffffffffffffffffffffffffffffffff1673ffffffffffffffffffffffffffffffffffffffff1673ffffffffffffffffffffffffffffffffffffffff1681526020016003820160009054906101000a900473ffffffffffffffffffffffffffffffffffffffff1673ffffffffffffffffffffffffffffffffffffffff1673ffffffffffffffffffffffffffffffffffffffff1681526020016004820160009054906101000a900473ffffffffffffffffffffffffffffffffffffffff1673ffffffffffffffffffffffffffffffffffffffff1673ffffffffffffffffffffffffffffffffffffffff1681526020016004820160149054906101000a900460ff161515151581526020016005820154815250508486815181106115d0576115cf614e8d565b5b60200260200101819052506001856115e89190614e37565b945050505b80806115f890614ebc565b915050611334565b508094505050505090565b60006116156119f4565b15611655576040517f08c379a000000000000000000000000000000000000000000000000000000000815260040161164c90614d85565b60405180910390fd5b7fa49807205ce4d355092ef5a8a18f56e8913cf4a201fbe287825b095693c2177561168781611682613f1f565b613f27565b6116916003613fc4565b91505090565b61169f6119f4565b156116df576040517f08c379a00000000000000000000000000000000000000000000000000000000081526004016116d690614d85565b60405180910390fd5b60026001541415611725576040517f08c379a000000000000000000000000000000000000000000000000000000000815260040161171c90614fe3565b60405180910390fd5b60026001819055508060008111801561174757506117436003613fc4565b8111155b61175057600080fd5b8160006003811115611765576117646149da565b5b6008600083815260200190815260200160002060020160009054906101000a900460ff16600381111561179b5761179a6149da565b5b14801561180a5750600073ffffffffffffffffffffffffffffffffffffffff166008600083815260200190815260200160002060020160019054906101000a900473ffffffffffffffffffffffffffffffffffffffff1673ffffffffffffffffffffffffffffffffffffffff16145b61181357600080fd5b61183d7f21702c8af46127c7fa207f89d0b0a8441bb32959a0ac7df790e9ab1a25c98926336126cc565b8061186e575061186d7fa49807205ce4d355092ef5a8a18f56e8913cf4a201fbe287825b095693c21775336126cc565b5b61187757600080fd5b6008600084815260200190815260200160002060040160009054906101000a900473ffffffffffffffffffffffffffffffffffffffff1673ffffffffffffffffffffffffffffffffffffffff166342842e0e306008600087815260200190815260200160002060030160009054906101000a900473ffffffffffffffffffffffffffffffffffffffff1660086000888152602001908152602001600020600101546040518463ffffffff1660e01b815260040161193693929190615024565b600060405180830381600087803b15801561195057600080fd5b505af1158015611964573d6000803e3d6000fd5b5050505060036008600085815260200190815260200160002060020160006101000a81548160ff021916908360038111156119a2576119a16149da565b5b02179055506119b16005614193565b7f35ad665947989f302bab23dc26895888ebf8978daae5ab99a3ef2b72e5609634836040516119e0919061478a565b60405180910390a150506001808190555050565b6000600260009054906101000a900460ff16905090565b611a136119f4565b15611a53576040517f08c379a0000000000000000000000000000000000000000000000000000000008152600401611a4a90614d85565b60405180910390fd5b7fa49807205ce4d355092ef5a8a18f56e8913cf4a201fbe287825b095693c21775611a8581611a80613f1f565b613f27565b611a8d6141ef565b50565b611a986119f4565b15611ad8576040517f08c379a0000000000000000000000000000000000000000000000000000000008152600401611acf90614d85565b60405180910390fd5b60026001541415611b1e576040517f08c379a0000000000000000000000000000000000000000000000000000000008152600401611b1590614fe3565b60405180910390fd5b600260018190555080600081118015611b405750611b3c6003613fc4565b8111155b611b4957600080fd5b8160006003811115611b5e57611b5d6149da565b5b6008600083815260200190815260200160002060020160009054906101000a900460ff166003811115611b9457611b936149da565b5b148015611c035750600073ffffffffffffffffffffffffffffffffffffffff166008600083815260200190815260200160002060020160019054906101000a900473ffffffffffffffffffffffffffffffffffffffff1673ffffffffffffffffffffffffffffffffffffffff16145b611c0c57600080fd5b611c367f21702c8af46127c7fa207f89d0b0a8441bb32959a0ac7df790e9ab1a25c98926336126cc565b80611c675750611c667fa49807205ce4d355092ef5a8a18f56e8913cf4a201fbe287825b095693c21775336126cc565b5b611c7057600080fd5b60016008600085815260200190815260200160002060020160006101000a81548160ff02191690836003811115611caa57611ca96149da565b5b0217905550611cb96005614193565b7f4e1b04588a81257645d741dad6763bf5fbe64c58143b0a29e9146644f737be7a8360086000868152602001908152602001600020600501546008600087815260200190815260200160002060030160009054906101000a900473ffffffffffffffffffffffffffffffffffffffff16604051611d389392919061505b565b60405180910390a150506001808190555050565b7fa49807205ce4d355092ef5a8a18f56e8913cf4a201fbe287825b095693c2177581565b611d786119f4565b611db7576040517f08c379a0000000000000000000000000000000000000000000000000000000008152600401611dae906150de565b60405180910390fd5b7fa49807205ce4d355092ef5a8a18f56e8913cf4a201fbe287825b095693c21775611de981611de4613f1f565b613f27565b611df1614292565b50565b60026001541415611e3a576040517f08c379a0000000000000000000000000000000000000000000000000000000008152600401611e3190614fe3565b60405180910390fd5b6002600181905550611e4a6119f4565b15611e8a576040517f08c379a0000000000000000000000000000000000000000000000000000000008152600401611e8190614d85565b60405180910390fd5b80600081118015611ea45750611ea06003613fc4565b8111155b611ead57600080fd5b8160016003811115611ec257611ec16149da565b5b6008600083815260200190815260200160002060020160009054906101000a900460ff166003811115611ef857611ef76149da565b5b148015611f2c5750600015156008600083815260200190815260200160002060040160149054906101000a900460ff161515145b611f3557600080fd5b8260006008600086815260200190815260200160002090508060030160009054906101000a900473ffffffffffffffffffffffffffffffffffffffff1673ffffffffffffffffffffffffffffffffffffffff163373ffffffffffffffffffffffffffffffffffffffff161415611faa57600080fd5b8060050154341015611fbb57600080fd5b60008160030160009054906101000a900473ffffffffffffffffffffffffffffffffffffffff1673ffffffffffffffffffffffffffffffffffffffff1682600501546040516120099061512f565b60006040518083038185875af1925050503d8060008114612046576040519150601f19603f3d011682016040523d82523d6000602084013e61204b565b606091505b505090508061208f576040517f08c379a000000000000000000000000000000000000000000000000000000000815260040161208690615190565b60405180910390fd5b8160040160009054906101000a900473ffffffffffffffffffffffffffffffffffffffff1673ffffffffffffffffffffffffffffffffffffffff166342842e0e303385600101546040518463ffffffff1660e01b81526004016120f4939291906151b0565b600060405180830381600087803b15801561210e57600080fd5b505af1158015612122573d6000803e3d6000fd5b5050505060018260040160146101000a81548160ff02191690831515021790555060028260020160006101000a81548160ff0219169083600381111561216b5761216a6149da565b5b0217905550338260020160016101000a81548173ffffffffffffffffffffffffffffffffffffffff021916908373ffffffffffffffffffffffffffffffffffffffff1602179055506121bd6004614334565b7ff6d781c177169682e2a753162cd162e9755584fed9d1947397e6498cebde075f8683600501548460020160019054906101000a900473ffffffffffffffffffffffffffffffffffffffff168560030160009054906101000a900473ffffffffffffffffffffffffffffffffffffffff1660405161223e94939291906151e7565b60405180910390a15050600060086000838152602001908152602001600020600501549050600081346122719190614dd4565b905060006008600085815260200190815260200160002060020160019054906101000a900473ffffffffffffffffffffffffffffffffffffffff1673ffffffffffffffffffffffffffffffffffffffff16826040516122cf9061512f565b60006040518083038185875af1925050503d806000811461230c576040519150601f19603f3d011682016040523d82523d6000602084013e612311565b606091505b5050905080612355576040517f08c379a000000000000000000000000000000000000000000000000000000000815260040161234c90615190565b60405180910390fd5b5050505050506001808190555050565b61236d6119f4565b156123ad576040517f08c379a00000000000000000000000000000000000000000000000000000000081526004016123a490614d85565b60405180910390fd5b600260015414156123f3576040517f08c379a00000000000000000000000000000000000000000000000000000000081526004016123ea90614fe3565b60405180910390fd5b60026001819055508060008111801561241557506124116003613fc4565b8111155b61241e57600080fd5b8160006003811115612433576124326149da565b5b6008600083815260200190815260200160002060020160009054906101000a900460ff166003811115612469576124686149da565b5b1480156124d85750600073ffffffffffffffffffffffffffffffffffffffff166008600083815260200190815260200160002060020160019054906101000a900473ffffffffffffffffffffffffffffffffffffffff1673ffffffffffffffffffffffffffffffffffffffff16145b6124e157600080fd5b6008600084815260200190815260200160002060030160009054906101000a900473ffffffffffffffffffffffffffffffffffffffff1673ffffffffffffffffffffffffffffffffffffffff163373ffffffffffffffffffffffffffffffffffffffff161461254f57600080fd5b6008600084815260200190815260200160002060040160009054906101000a900473ffffffffffffffffffffffffffffffffffffffff1673ffffffffffffffffffffffffffffffffffffffff166342842e0e306008600087815260200190815260200160002060030160009054906101000a900473ffffffffffffffffffffffffffffffffffffffff1660086000888152602001908152602001600020600101546040518463ffffffff1660e01b815260040161260e93929190615024565b600060405180830381600087803b15801561262857600080fd5b505af115801561263c573d6000803e3d6000fd5b5050505060036008600085815260200190815260200160002060020160006101000a81548160ff0219169083600381111561267a576126796149da565b5b02179055506126896005614193565b7f35ad665947989f302bab23dc26895888ebf8978daae5ab99a3ef2b72e5609634836040516126b8919061478a565b60405180910390a150506001808190555050565b600080600084815260200190815260200160002060000160008373ffffffffffffffffffffffffffffffffffffffff1673ffffffffffffffffffffffffffffffffffffffff16815260200190815260200160002060009054906101000a900460ff16905092915050565b60006127406119f4565b15612780576040517f08c379a000000000000000000000000000000000000000000000000000000000815260040161277790614d85565b60405180910390fd5b600260015414156127c6576040517f08c379a00000000000000000000000000000000000000000000000000000000081526004016127bd90614fe3565b60405180910390fd5b60026001819055506007543410156127dd57600080fd5b600082116127ea57600080fd5b3073ffffffffffffffffffffffffffffffffffffffff168473ffffffffffffffffffffffffffffffffffffffff1663081812fc856040518263ffffffff1660e01b815260040161283a919061478a565b60206040518083038186803b15801561285257600080fd5b505afa158015612866573d6000803e3d6000fd5b505050506040513d601f19601f8201168201806040525081019061288a9190615241565b73ffffffffffffffffffffffffffffffffffffffff16146128aa57600080fd5b3373ffffffffffffffffffffffffffffffffffffffff168473ffffffffffffffffffffffffffffffffffffffff16636352211e856040518263ffffffff1660e01b81526004016128fa919061478a565b60206040518083038186803b15801561291257600080fd5b505afa158015612926573d6000803e3d6000fd5b505050506040513d601f19601f8201168201806040525081019061294a9190615241565b73ffffffffffffffffffffffffffffffffffffffff161461296a57600080fd5b6129746003614334565b60006129806003613fc4565b9050604051806101000160405280828152602001858152602001600060038111156129ae576129ad6149da565b5b8152602001600073ffffffffffffffffffffffffffffffffffffffff1681526020013373ffffffffffffffffffffffffffffffffffffffff1681526020018673ffffffffffffffffffffffffffffffffffffffff1681526020016000151581526020018481525060086000838152602001908152602001600020600082015181600001556020820151816001015560408201518160020160006101000a81548160ff02191690836003811115612a6757612a666149da565b5b021790555060608201518160020160016101000a81548173ffffffffffffffffffffffffffffffffffffffff021916908373ffffffffffffffffffffffffffffffffffffffff16021790555060808201518160030160006101000a81548173ffffffffffffffffffffffffffffffffffffffff021916908373ffffffffffffffffffffffffffffffffffffffff16021790555060a08201518160040160006101000a81548173ffffffffffffffffffffffffffffffffffffffff021916908373ffffffffffffffffffffffffffffffffffffffff16021790555060c08201518160040160146101000a81548160ff02191690831515021790555060e082015181600501559050506008600082815260200190815260200160002060040160009054906101000a900473ffffffffffffffffffffffffffffffffffffffff1673ffffffffffffffffffffffffffffffffffffffff166342842e0e3330876040518463ffffffff1660e01b8152600401612be1939291906151b0565b600060405180830381600087803b158015612bfb57600080fd5b505af1158015612c0f573d6000803e3d6000fd5b505050506000600660009054906101000a900473ffffffffffffffffffffffffffffffffffffffff1673ffffffffffffffffffffffffffffffffffffffff16600754604051612c5d9061512f565b60006040518083038185875af1925050503d8060008114612c9a576040519150601f19603f3d011682016040523d82523d6000602084013e612c9f565b606091505b5050905080612ce3576040517f08c379a0000000000000000000000000000000000000000000000000000000008152600401612cda90615190565b60405180910390fd5b612ced6005614334565b8360006003811115612d0257612d016149da565b5b7f0afc8e962af748f7096e9f2da74e460590f758273a65acc8d741b25333d8960d84886000338c6000604051612d3d9695949392919061527d565b60405180910390a38192505050600060075434612d5a9190614dd4565b905060003373ffffffffffffffffffffffffffffffffffffffff1682604051612d829061512f565b60006040518083038185875af1925050503d8060008114612dbf576040519150601f19603f3d011682016040523d82523d6000602084013e612dc4565b606091505b5050905080612e08576040517f08c379a0000000000000000000000000000000000000000000000000000000008152600401612dff90615190565b60405180910390fd5b5050600180819055509392505050565b6000801b81565b612e276119f4565b15612e67576040517f08c379a0000000000000000000000000000000000000000000000000000000008152600401612e5e90614d85565b60405180910390fd5b60026001541415612ead576040517f08c379a0000000000000000000000000000000000000000000000000000000008152600401612ea490614fe3565b60405180910390fd5b600260018190555081600081118015612ecf5750612ecb6003613fc4565b8111155b612ed857600080fd5b60086000848152602001908152602001600020600501548214158015612efe5750600082115b612f0757600080fd5b600015156008600085815260200190815260200160002060040160149054906101000a900460ff16151514612f3b57600080fd5b3373ffffffffffffffffffffffffffffffffffffffff166008600085815260200190815260200160002060030160009054906101000a900473ffffffffffffffffffffffffffffffffffffffff1673ffffffffffffffffffffffffffffffffffffffff1614612fa957600080fd5b8160086000858152602001908152602001600020600501819055507f3a8cc8002b87bf194baf99a38d39518398c8be9a3718ab35084858d3f5155a408383604051612ff59291906152de565b60405180910390a150600180819055505050565b6130116119f4565b613050576040517f08c379a0000000000000000000000000000000000000000000000000000000008152600401613047906150de565b60405180910390fd5b7fa49807205ce4d355092ef5a8a18f56e8913cf4a201fbe287825b095693c217756130828161307d613f1f565b613f27565b60008211801561309457506007548214155b6130d3576040517f08c379a00000000000000000000000000000000000000000000000000000000081526004016130ca9061539f565b60405180910390fd5b816007819055507facf9909a8b0c1bfc322ebb8123053c1dd313d045cf2bf1ababbd102d67e0f62460075460405161310b919061478a565b60405180910390a15050565b7f21702c8af46127c7fa207f89d0b0a8441bb32959a0ac7df790e9ab1a25c9892681565b60606131456119f4565b15613185576040517f08c379a000000000000000000000000000000000000000000000000000000000815260040161317c90614d85565b60405180910390fd5b7fa49807205ce4d355092ef5a8a18f56e8913cf4a201fbe287825b095693c217756131b7816131b2613f1f565b613f27565b60006131c36003613fc4565b905060006131d16004613fc4565b6131db6003613fc4565b6131e59190614dd4565b90506000808267ffffffffffffffff81111561320457613203614e08565b5b60405190808252806020026020018201604052801561323d57816020015b61322a614586565b8152602001906001900390816132225790505b50905060005b8481101561350f576002600381111561325f5761325e6149da565b5b600860006001846132709190614e37565b815260200190815260200160002060020160009054906101000a900460ff1660038111156132a1576132a06149da565b5b148061331c5750600073ffffffffffffffffffffffffffffffffffffffff16600860006001846132d19190614e37565b815260200190815260200160002060020160019054906101000a900473ffffffffffffffffffffffffffffffffffffffff1673ffffffffffffffffffffffffffffffffffffffff1614155b156134fc5760006001826133309190614e37565b90506000600860008381526020019081526020016000209050806040518061010001604052908160008201548152602001600182015481526020016002820160009054906101000a900460ff16600381111561338f5761338e6149da565b5b60038111156133a1576133a06149da565b5b81526020016002820160019054906101000a900473ffffffffffffffffffffffffffffffffffffffff1673ffffffffffffffffffffffffffffffffffffffff1673ffffffffffffffffffffffffffffffffffffffff1681526020016003820160009054906101000a900473ffffffffffffffffffffffffffffffffffffffff1673ffffffffffffffffffffffffffffffffffffffff1673ffffffffffffffffffffffffffffffffffffffff1681526020016004820160009054906101000a900473ffffffffffffffffffffffffffffffffffffffff1673ffffffffffffffffffffffffffffffffffffffff1673ffffffffffffffffffffffffffffffffffffffff1681526020016004820160149054906101000a900460ff161515151581526020016005820154815250508486815181106134df576134de614e8d565b5b60200260200101819052506001856134f79190614e37565b945050505b808061350790614ebc565b915050613243565b50809550505050505090565b61352482610a66565b61353581613530613f1f565b613f27565b61353f83836140b2565b505050565b606061354e6119f4565b1561358e576040517f08c379a000000000000000000000000000000000000000000000000000000000815260040161358590614d85565b60405180910390fd5b600061359a6003613fc4565b905060008060005b83811015613643573373ffffffffffffffffffffffffffffffffffffffff16600860006001846135d29190614e37565b815260200190815260200160002060030160009054906101000a900473ffffffffffffffffffffffffffffffffffffffff1673ffffffffffffffffffffffffffffffffffffffff1614156136305760018361362d9190614e37565b92505b808061363b90614ebc565b9150506135a2565b5060008267ffffffffffffffff8111156136605761365f614e08565b5b60405190808252806020026020018201604052801561369957816020015b613686614586565b81526020019060019003908161367e5790505b50905060005b8481101561390b573373ffffffffffffffffffffffffffffffffffffffff16600860006001846136cf9190614e37565b815260200190815260200160002060030160009054906101000a900473ffffffffffffffffffffffffffffffffffffffff1673ffffffffffffffffffffffffffffffffffffffff1614156138f857600060018261372c9190614e37565b90506000600860008381526020019081526020016000209050806040518061010001604052908160008201548152602001600182015481526020016002820160009054906101000a900460ff16600381111561378b5761378a6149da565b5b600381111561379d5761379c6149da565b5b81526020016002820160019054906101000a900473ffffffffffffffffffffffffffffffffffffffff1673ffffffffffffffffffffffffffffffffffffffff1673ffffffffffffffffffffffffffffffffffffffff1681526020016003820160009054906101000a900473ffffffffffffffffffffffffffffffffffffffff1673ffffffffffffffffffffffffffffffffffffffff1673ffffffffffffffffffffffffffffffffffffffff1681526020016004820160009054906101000a900473ffffffffffffffffffffffffffffffffffffffff1673ffffffffffffffffffffffffffffffffffffffff1673ffffffffffffffffffffffffffffffffffffffff1681526020016004820160149054906101000a900460ff161515151581526020016005820154815250508486815181106138db576138da614e8d565b5b60200260200101819052506001856138f39190614e37565b945050505b808061390390614ebc565b91505061369f565b508094505050505090565b60606139206119f4565b15613960576040517f08c379a000000000000000000000000000000000000000000000000000000000815260040161395790614d85565b60405180910390fd5b600061396c6003613fc4565b905060008060005b83811015613a15573373ffffffffffffffffffffffffffffffffffffffff16600860006001846139a49190614e37565b815260200190815260200160002060020160019054906101000a900473ffffffffffffffffffffffffffffffffffffffff1673ffffffffffffffffffffffffffffffffffffffff161415613a02576001836139ff9190614e37565b92505b8080613a0d90614ebc565b915050613974565b5060008267ffffffffffffffff811115613a3257613a31614e08565b5b604051908082528060200260200182016040528015613a6b57816020015b613a58614586565b815260200190600190039081613a505790505b50905060005b84811015613cdd573373ffffffffffffffffffffffffffffffffffffffff1660086000600184613aa19190614e37565b815260200190815260200160002060020160019054906101000a900473ffffffffffffffffffffffffffffffffffffffff1673ffffffffffffffffffffffffffffffffffffffff161415613cca576000600182613afe9190614e37565b90506000600860008381526020019081526020016000209050806040518061010001604052908160008201548152602001600182015481526020016002820160009054906101000a900460ff166003811115613b5d57613b5c6149da565b5b6003811115613b6f57613b6e6149da565b5b81526020016002820160019054906101000a900473ffffffffffffffffffffffffffffffffffffffff1673ffffffffffffffffffffffffffffffffffffffff1673ffffffffffffffffffffffffffffffffffffffff1681526020016003820160009054906101000a900473ffffffffffffffffffffffffffffffffffffffff1673ffffffffffffffffffffffffffffffffffffffff1673ffffffffffffffffffffffffffffffffffffffff1681526020016004820160009054906101000a900473ffffffffffffffffffffffffffffffffffffffff1673ffffffffffffffffffffffffffffffffffffffff1673ffffffffffffffffffffffffffffffffffffffff1681526020016004820160149054906101000a900460ff16151515158152602001600582015481525050848681518110613cad57613cac614e8d565b5b6020026020010181905250600185613cc59190614e37565b945050505b8080613cd590614ebc565b915050613a71565b508094505050505090565b613cf06119f4565b15613d30576040517f08c379a0000000000000000000000000000000000000000000000000000000008152600401613d2790614d85565b60405180910390fd5b7fa49807205ce4d355092ef5a8a18f56e8913cf4a201fbe287825b095693c21775613d6281613d5d613f1f565b613f27565b81600073ffffffffffffffffffffffffffffffffffffffff168173ffffffffffffffffffffffffffffffffffffffff161415613d9d57600080fd5b82600660009054906101000a900473ffffffffffffffffffffffffffffffffffffffff1673ffffffffffffffffffffffffffffffffffffffff168173ffffffffffffffffffffffffffffffffffffffff161415613df957600080fd5b613e237f21702c8af46127c7fa207f89d0b0a8441bb32959a0ac7df790e9ab1a25c9892685610e1c565b50505050565b6000613e336119f4565b15613e73576040517f08c379a0000000000000000000000000000000000000000000000000000000008152600401613e6a90614d85565b60405180910390fd5b7fa49807205ce4d355092ef5a8a18f56e8913cf4a201fbe287825b095693c21775613ea581613ea0613f1f565b613f27565b613eaf6004613fc4565b91505090565b60007f01ffc9a7000000000000000000000000000000000000000000000000000000007bffffffffffffffffffffffffffffffffffffffffffffffffffffffff1916827bffffffffffffffffffffffffffffffffffffffffffffffffffffffff1916149050919050565b600033905090565b613f3182826126cc565b613fc057613f568173ffffffffffffffffffffffffffffffffffffffff16601461434a565b613f648360001c602061434a565b604051602001613f759291906154d1565b6040516020818303038152906040526040517f08c379a0000000000000000000000000000000000000000000000000000000008152600401613fb79190615555565b60405180910390fd5b5050565b600081600001549050919050565b613fdc82826126cc565b6140ae57600160008084815260200190815260200160002060000160008373ffffffffffffffffffffffffffffffffffffffff1673ffffffffffffffffffffffffffffffffffffffff16815260200190815260200160002060006101000a81548160ff021916908315150217905550614053613f1f565b73ffffffffffffffffffffffffffffffffffffffff168173ffffffffffffffffffffffffffffffffffffffff16837f2f8788117e7eff1d82e926ec794901d17c78024a50270940304540a733656f0d60405160405180910390a45b5050565b6140bc82826126cc565b1561418f57600080600084815260200190815260200160002060000160008373ffffffffffffffffffffffffffffffffffffffff1673ffffffffffffffffffffffffffffffffffffffff16815260200190815260200160002060006101000a81548160ff021916908315150217905550614134613f1f565b73ffffffffffffffffffffffffffffffffffffffff168173ffffffffffffffffffffffffffffffffffffffff16837ff6391f5c32d9c69d2a47ea670b442974b53935d1edc7fd64eb21e047a839171b60405160405180910390a45b5050565b600081600001549050600081116141df576040517f08c379a00000000000000000000000000000000000000000000000000000000081526004016141d6906155c3565b60405180910390fd5b6001810382600001819055505050565b6141f76119f4565b15614237576040517f08c379a000000000000000000000000000000000000000000000000000000000815260040161422e90614d85565b60405180910390fd5b6001600260006101000a81548160ff0219169083151502179055507f62e78cea01bee320cd4e420270b5ea74000d11b0c9f74754ebdbfc544b05a25861427b613f1f565b60405161428891906148f7565b60405180910390a1565b61429a6119f4565b6142d9576040517f08c379a00000000000000000000000000000000000000000000000000000000081526004016142d0906150de565b60405180910390fd5b6000600260006101000a81548160ff0219169083151502179055507f5db9ee0a495bf2e6ff9c91a7834c1ba4fdd244a5e8aa4e537bd38aeae4b073aa61431d613f1f565b60405161432a91906148f7565b60405180910390a1565b6001816000016000828254019250508190555050565b60606000600283600261435d91906155e3565b6143679190614e37565b67ffffffffffffffff8111156143805761437f614e08565b5b6040519080825280601f01601f1916602001820160405280156143b25781602001600182028036833780820191505090505b5090507f3000000000000000000000000000000000000000000000000000000000000000816000815181106143ea576143e9614e8d565b5b60200101907effffffffffffffffffffffffffffffffffffffffffffffffffffffffffffff1916908160001a9053507f78000000000000000000000000000000000000000000000000000000000000008160018151811061444e5761444d614e8d565b5b60200101907effffffffffffffffffffffffffffffffffffffffffffffffffffffffffffff1916908160001a9053506000600184600261448e91906155e3565b6144989190614e37565b90505b6001811115614538577f3031323334353637383961626364656600000000000000000000000000000000600f8616601081106144da576144d9614e8d565b5b1a60f81b8282815181106144f1576144f0614e8d565b5b60200101907effffffffffffffffffffffffffffffffffffffffffffffffffffffffffffff1916908160001a905350600485901c9450806145319061563d565b905061449b565b506000841461457c576040517f08c379a0000000000000000000000000000000000000000000000000000000008152600401614573906156b3565b60405180910390fd5b8091505092915050565b6040518061010001604052806000815260200160008152602001600060038111156145b4576145b36149da565b5b8152602001600073ffffffffffffffffffffffffffffffffffffffff168152602001600073ffffffffffffffffffffffffffffffffffffffff168152602001600073ffffffffffffffffffffffffffffffffffffffff168152602001600015158152602001600081525090565b600080fd5b600080fd5b60007fffffffff0000000000000000000000000000000000000000000000000000000082169050919050565b6146608161462b565b811461466b57600080fd5b50565b60008135905061467d81614657565b92915050565b60006020828403121561469957614698614621565b5b60006146a78482850161466e565b91505092915050565b60008115159050919050565b6146c5816146b0565b82525050565b60006020820190506146e060008301846146bc565b92915050565b600073ffffffffffffffffffffffffffffffffffffffff82169050919050565b6000614711826146e6565b9050919050565b61472181614706565b811461472c57600080fd5b50565b60008135905061473e81614718565b92915050565b60006020828403121561475a57614759614621565b5b60006147688482850161472f565b91505092915050565b6000819050919050565b61478481614771565b82525050565b600060208201905061479f600083018461477b565b92915050565b6147ae81614771565b81146147b957600080fd5b50565b6000813590506147cb816147a5565b92915050565b600080fd5b600080fd5b600080fd5b60008083601f8401126147f6576147f56147d1565b5b8235905067ffffffffffffffff811115614813576148126147d6565b5b60208301915083600182028301111561482f5761482e6147db565b5b9250929050565b60008060008060006080868803121561485257614851614621565b5b60006148608882890161472f565b95505060206148718882890161472f565b9450506040614882888289016147bc565b935050606086013567ffffffffffffffff8111156148a3576148a2614626565b5b6148af888289016147e0565b92509250509295509295909350565b6148c78161462b565b82525050565b60006020820190506148e260008301846148be565b92915050565b6148f181614706565b82525050565b600060208201905061490c60008301846148e8565b92915050565b6000819050919050565b61492581614912565b811461493057600080fd5b50565b6000813590506149428161491c565b92915050565b60006020828403121561495e5761495d614621565b5b600061496c84828501614933565b91505092915050565b61497e81614912565b82525050565b60006020820190506149996000830184614975565b92915050565b600081519050919050565b600082825260208201905092915050565b6000819050602082019050919050565b6149d481614771565b82525050565b7f4e487b7100000000000000000000000000000000000000000000000000000000600052602160045260246000fd5b60048110614a1a57614a196149da565b5b50565b6000819050614a2b82614a09565b919050565b6000614a3b82614a1d565b9050919050565b614a4b81614a30565b82525050565b6000614a5c826146e6565b9050919050565b614a6c81614a51565b82525050565b6000819050919050565b6000614a97614a92614a8d846146e6565b614a72565b6146e6565b9050919050565b6000614aa982614a7c565b9050919050565b6000614abb82614a9e565b9050919050565b614acb81614ab0565b82525050565b614ada816146b0565b82525050565b61010082016000820151614af760008501826149cb565b506020820151614b0a60208501826149cb565b506040820151614b1d6040850182614a42565b506060820151614b306060850182614a63565b506080820151614b436080850182614a63565b5060a0820151614b5660a0850182614ac2565b5060c0820151614b6960c0850182614ad1565b5060e0820151614b7c60e08501826149cb565b50505050565b6000614b8e8383614ae0565b6101008301905092915050565b6000602082019050919050565b6000614bb38261499f565b614bbd81856149aa565b9350614bc8836149bb565b8060005b83811015614bf9578151614be08882614b82565b9750614beb83614b9b565b925050600181019050614bcc565b5085935050505092915050565b60006020820190508181036000830152614c208184614ba8565b905092915050565b60008060408385031215614c3f57614c3e614621565b5b6000614c4d85828601614933565b9250506020614c5e8582860161472f565b9150509250929050565b600060208284031215614c7e57614c7d614621565b5b6000614c8c848285016147bc565b91505092915050565b600080600060608486031215614cae57614cad614621565b5b6000614cbc8682870161472f565b9350506020614ccd868287016147bc565b9250506040614cde868287016147bc565b9150509250925092565b60008060408385031215614cff57614cfe614621565b5b6000614d0d858286016147bc565b9250506020614d1e858286016147bc565b9150509250929050565b600082825260208201905092915050565b7f5061757361626c653a2070617573656400000000000000000000000000000000600082015250565b6000614d6f601083614d28565b9150614d7a82614d39565b602082019050919050565b60006020820190508181036000830152614d9e81614d62565b9050919050565b7f4e487b7100000000000000000000000000000000000000000000000000000000600052601160045260246000fd5b6000614ddf82614771565b9150614dea83614771565b925082821015614dfd57614dfc614da5565b5b828203905092915050565b7f4e487b7100000000000000000000000000000000000000000000000000000000600052604160045260246000fd5b6000614e4282614771565b9150614e4d83614771565b9250827fffffffffffffffffffffffffffffffffffffffffffffffffffffffffffffffff03821115614e8257614e81614da5565b5b828201905092915050565b7f4e487b7100000000000000000000000000000000000000000000000000000000600052603260045260246000fd5b6000614ec782614771565b91507fffffffffffffffffffffffffffffffffffffffffffffffffffffffffffffffff821415614efa57614ef9614da5565b5b600182019050919050565b7f416363657373436f6e74726f6c3a2063616e206f6e6c792072656e6f756e636560008201527f20726f6c657320666f722073656c660000000000000000000000000000000000602082015250565b6000614f61602f83614d28565b9150614f6c82614f05565b604082019050919050565b60006020820190508181036000830152614f9081614f54565b9050919050565b7f5265656e7472616e637947756172643a207265656e7472616e742063616c6c00600082015250565b6000614fcd601f83614d28565b9150614fd882614f97565b602082019050919050565b60006020820190508181036000830152614ffc81614fc0565b9050919050565b600061500e82614a9e565b9050919050565b61501e81615003565b82525050565b600060608201905061503960008301866148e8565b6150466020830185615015565b615053604083018461477b565b949350505050565b6000606082019050615070600083018661477b565b61507d602083018561477b565b61508a6040830184615015565b949350505050565b7f5061757361626c653a206e6f7420706175736564000000000000000000000000600082015250565b60006150c8601483614d28565b91506150d382615092565b602082019050919050565b600060208201905081810360008301526150f7816150bb565b9050919050565b600081905092915050565b50565b60006151196000836150fe565b915061512482615109565b600082019050919050565b600061513a8261510c565b9150819050919050565b7f5472616e73666572206661696c65642e00000000000000000000000000000000600082015250565b600061517a601083614d28565b915061518582615144565b602082019050919050565b600060208201905081810360008301526151a98161516d565b9050919050565b60006060820190506151c560008301866148e8565b6151d260208301856148e8565b6151df604083018461477b565b949350505050565b60006080820190506151fc600083018761477b565b615209602083018661477b565b6152166040830185615015565b6152236060830184615015565b95945050505050565b60008151905061523b81614718565b92915050565b60006020828403121561525757615256614621565b5b60006152658482850161522c565b91505092915050565b61527781614a51565b82525050565b600060c082019050615292600083018961477b565b61529f602083018861477b565b6152ac604083018761526e565b6152b9606083018661526e565b6152c660808301856148e8565b6152d360a08301846146bc565b979650505050505050565b60006040820190506152f3600083018561477b565b615300602083018461477b565b9392505050565b7f56616c7565206d7573742062652067726561746572207468616e207a65726f2060008201527f616e64206e6f7420657175616c20746f20746865206f6c64206c697374696e6760208201527f2070726963650000000000000000000000000000000000000000000000000000604082015250565b6000615389604683614d28565b915061539482615307565b606082019050919050565b600060208201905081810360008301526153b88161537c565b9050919050565b600081905092915050565b7f416363657373436f6e74726f6c3a206163636f756e7420000000000000000000600082015250565b60006154006017836153bf565b915061540b826153ca565b601782019050919050565b600081519050919050565b60005b8381101561543f578082015181840152602081019050615424565b8381111561544e576000848401525b50505050565b600061545f82615416565b61546981856153bf565b9350615479818560208601615421565b80840191505092915050565b7f206973206d697373696e6720726f6c6520000000000000000000000000000000600082015250565b60006154bb6011836153bf565b91506154c682615485565b601182019050919050565b60006154dc826153f3565b91506154e88285615454565b91506154f3826154ae565b91506154ff8284615454565b91508190509392505050565b6000601f19601f8301169050919050565b600061552782615416565b6155318185614d28565b9350615541818560208601615421565b61554a8161550b565b840191505092915050565b6000602082019050818103600083015261556f818461551c565b905092915050565b7f436f756e7465723a2064656372656d656e74206f766572666c6f770000000000600082015250565b60006155ad601b83614d28565b91506155b882615577565b602082019050919050565b600060208201905081810360008301526155dc816155a0565b9050919050565b60006155ee82614771565b91506155f983614771565b9250817fffffffffffffffffffffffffffffffffffffffffffffffffffffffffffffffff048311821515161561563257615631614da5565b5b828202905092915050565b600061564882614771565b9150600082141561565c5761565b614da5565b5b600182039050919050565b7f537472696e67733a20686578206c656e67746820696e73756666696369656e74600082015250565b600061569d602083614d28565b91506156a882615667565b602082019050919050565b600060208201905081810360008301526156cc81615690565b905091905056fea264697066735822122033a64acdabd0756e2cee2a8cf8bc77f4b573b89ddf536bfbc43ff1627527b68864736f6c63430008090033",
  "immutableReferences": {},
  "source": "// SPDX-License-Identifier: MIT\r\npragma solidity 0.8.9;\r\n\r\nimport \"@openzeppelin/contracts/token/ERC721/IERC721Receiver.sol\";\r\nimport \"@openzeppelin/contracts/security/Pausable.sol\";\r\nimport \"@openzeppelin/contracts/security/ReentrancyGuard.sol\";\r\nimport \"@openzeppelin/contracts/access/AccessControl.sol\";\r\nimport \"@openzeppelin/contracts/utils/Counters.sol\";\r\nimport \"./AnimeNFT.sol\";\r\n\r\n/// @title Fixed Price NFT Marketplace\r\n/// @author Ramadan Wasfi\r\n/// @notice You can use this contract for only the most basic \r\ncontract NFTMarketplace is IERC721Receiver, AccessControl, ReentrancyGuard, Pausable{\r\n  using Counters for Counters.Counter;\r\n   \r\n  enum State {\r\n    Pending, ListedForSale, Sold, Removed\r\n  }\r\n\r\n  struct MarketItem {\r\n    uint256 itemID;\r\n    uint256 tokenID;\r\n    State itemState;\r\n    address payable buyer;\r\n    address payable seller;\r\n    AnimeNFT nft;\r\n    bool isSold;\r\n    uint256 price;\r\n  }\r\n\r\n  Counters.Counter private _itemIdCounter;\r\n  Counters.Counter private _itemsSoldCounter;\r\n  Counters.Counter private _pendingItemsCounter;\r\n\r\n  address payable private _owner;\r\n  uint256 private listingPrice;\r\n\r\n  bytes32 public constant  VALIDATOR_ROLE = keccak256(\"VALIDATOR_ROLE\");\r\n  bytes32 public constant  ADMIN_ROLE = keccak256(\"ADMIN_ROLE\");\r\n\r\n  mapping(uint256 => MarketItem) private marketItems;\r\n\r\n\r\n  /* * * * * * * * *  * * * *\r\n   * * * * *  Events * * * * \r\n   * * * * * * * * * * * * */\r\n\r\n\r\n  /// @notice the item is pending and need to be validated first to be listed\r\n  /// @dev notify the user that the item is pending and need to be validated first to be listed\r\n  /// @param itemID the id of the nft in the marketplace\r\n  /// @param tokenID the actual Id of the nft\r\n  /// @param itemState the state of the nft 'pending - listed for sale - sold - removed'\r\n  /// @param buyer the address of the buyer of the nft\r\n  /// @param seller the address of the owner or seller of the nft\r\n  /// @param nft the address of the nft \r\n  /// @param isSold boolean to check whether the nft has been sold or not\r\n  /// @param price the price of the nft\r\n  event logPending(uint256 itemID,\r\n    uint256 tokenID,\r\n    State indexed itemState,\r\n    address payable buyer,\r\n    address payable seller,\r\n    address nft,\r\n    bool isSold,\r\n    uint256 indexed price);\r\n\r\n  /// @notice the item is listed for sale\r\n  /// @dev notify the user that the item is listed for sale\r\n  /// @param itemId the id of the nft in the marketplace\r\n  /// @param price the price of the nft\r\n  /// @param seller the address of the seller of nft \r\n  event logListedForSale(uint256 itemId, uint256 price, address seller);\r\n\r\n  /// @notice the nft is sold \r\n  /// @dev notify the user that the item is sold by whom with how much\r\n  /// @param itemId the id of the nft that has been sold\r\n  /// @param price the price of the nft\r\n  /// @param seller the address of the seller of nft \r\n  /// @param buyer the address of the buyer of the nft\r\n  event logSold(uint256 itemId, uint256 price, address buyer, address seller);\r\n\r\n  /// @notice the nft has been removed from the marketplace\r\n  /// @dev notify the validator that the item has been removed from the marketplace\r\n  /// @param itemId the id of the nft which has been removed from the marketplace\r\n  event logRemoved(uint256 itemId); \r\n\r\n  /// @notice change the price of an nft in \r\n  /// @param itemId the ID of the item which the caller want to change its price\r\n  ///@param newPrice the new price of the nft\r\n  event logPriceChanged(uint256 itemId, uint256 newPrice);\r\n\r\n  /// @notice change the listing price \r\n  ///@param newListingPrice the new price of listing an nft\r\n  event logListingPriceChanged(uint256 newListingPrice);\r\n\r\n\r\n  /* * * * * * * * *  * * * *\r\n   * * * * * Modifiers * * * * \r\n   * * * * * * * * * * * * */\r\n\r\n\r\n  modifier pending(uint256 itemId) {\r\n    require (marketItems[itemId].itemState == State.Pending && marketItems[itemId].buyer == address(0));\r\n    _;\r\n  }\r\n\r\n  modifier listedForSale(uint256 itemId) {\r\n    require (marketItems[itemId].itemState == State.ListedForSale && marketItems[itemId].isSold == false);\r\n    _;\r\n  }\r\n\r\n  modifier sold(uint256 itemId) {\r\n    require (marketItems[itemId].itemState == State.Sold && marketItems[itemId].buyer != address(0) && marketItems[itemId].isSold == true);\r\n    _;\r\n  }\r\n\r\n  modifier removed(uint256 itemId) {\r\n    require (marketItems[itemId].itemState == State.Removed);\r\n    _;\r\n  }\r\n\r\n\r\n  modifier paidEnough() { \r\n    require(msg.value >= listingPrice); \r\n    _;\r\n  }\r\n\r\n  modifier checkBuyingPrice(uint256 itemID) {\r\n    _;\r\n    uint256 price = marketItems[itemID].price;\r\n    uint256 amountToRefund = msg.value - price;\r\n    (bool success, ) = marketItems[itemID].buyer.call{value:amountToRefund}(\"\");\r\n    require(success, \"Transfer failed.\");\r\n  }\r\n\r\n  modifier checkListingPrice() {\r\n    _;\r\n    uint256 amountToRefund = msg.value - listingPrice;\r\n    (bool success, ) = msg.sender.call{value:amountToRefund}(\"\");\r\n    require(success, \"Transfer failed.\");\r\n  }\r\n\r\n  modifier isAdminOrValidator() {\r\n    require(hasRole(VALIDATOR_ROLE, msg.sender) || hasRole(ADMIN_ROLE, msg.sender));\r\n    _;\r\n  }\r\n\r\n  modifier itemExists(uint _itemID) {\r\n    require(_itemID > 0 && _itemID <= _itemIdCounter.current());\r\n    _;\r\n  }\r\n\r\n  modifier notZeroAddress(address caller) {\r\n    require(caller != address(0));\r\n    _;\r\n  }\r\n\r\n  modifier notAdminAddress(address caller) {\r\n    require(caller != _owner);\r\n    _;\r\n  }\r\n\r\n\r\n  /* * * * * * * * *  * * * *\r\n   * * * * * Functions * * * * \r\n   * * * * * * * * * * * * */\r\n\r\n\r\n  constructor(uint256 _listingPrice){\r\n    _owner = payable(msg.sender);\r\n    listingPrice = _listingPrice;\r\n    _setupRole(ADMIN_ROLE, _owner);\r\n    _setupRole(VALIDATOR_ROLE, _owner);\r\n    _setRoleAdmin(VALIDATOR_ROLE,ADMIN_ROLE);  \r\n  }\r\n\r\n  receive() external payable {\r\n    revert();\r\n  }\r\n\r\n  fallback() external payable {\r\n    revert();\r\n  }\r\n\r\n  /// @notice create a request for listing a token in the marketplace\r\n  /// @param nftContract the address of the nft the sender want to list for sale \r\n  /// @param _tokenID the ID of the nft the sender want to list for sale\r\n  /// @param _price the price of the nft the sender want to list for sale\r\n  /// @return the ID of the item that contain nft and it's info in the marketplace\r\n  function createListingRequest(address nftContract, uint256 _tokenID,uint256 _price) public payable whenNotPaused nonReentrant checkListingPrice() paidEnough() returns(uint256) {\r\n    require(_price > 0);\r\n    require(AnimeNFT(nftContract).getApproved(_tokenID) == address(this));\r\n    require(AnimeNFT(nftContract).ownerOf(_tokenID) == msg.sender);\r\n    _itemIdCounter.increment();\r\n    uint256 _itemID = _itemIdCounter.current();\r\n\r\n    marketItems[_itemID] = MarketItem(\r\n      _itemID,\r\n      _tokenID,\r\n      State.Pending,\r\n      payable(address(0)),\r\n      payable(msg.sender),\r\n      AnimeNFT(nftContract),\r\n      false,\r\n      _price \r\n    );\r\n\r\n    marketItems[_itemID].nft.safeTransferFrom(msg.sender,address(this),_tokenID);\r\n    (bool success, ) = _owner.call{value:listingPrice}(\"\");\r\n    require(success, \"Transfer failed.\");\r\n\r\n    _pendingItemsCounter.increment();\r\n    emit logPending(_itemID,_tokenID,State.Pending,payable(address(0)),payable(msg.sender),nftContract,false,_price);\r\n    return _itemID;\r\n  }\r\n\r\n  /// @notice withdraw an item from the marketplace,\r\n  /// @dev it checks if the caller is the owner of item or not\r\n  /// @param _itemId the ID of the item that contain nft and it's info in the marketplace\r\n  function withdrawItem(uint256 _itemId) public whenNotPaused nonReentrant itemExists(_itemId) pending(_itemId) {\r\n    require(msg.sender == marketItems[_itemId].seller);\r\n    marketItems[_itemId].nft.safeTransferFrom(address(this),marketItems[_itemId].seller,marketItems[_itemId].tokenID);\r\n    marketItems[_itemId].itemState = State.Removed;\r\n    _pendingItemsCounter.decrement();\r\n    emit logRemoved(_itemId);\r\n  }\r\n \r\n  /// @notice buying a token which listed for sale at fixed price,\r\n  /// @dev it check for enough funds and transfer the nft to buyer and money to seller\r\n  /// @param _itemId the ID of the item that contain nft and it's info in the marketplace\r\n  function BuyItem(uint256 _itemId) public payable nonReentrant whenNotPaused itemExists(_itemId) listedForSale(_itemId) checkBuyingPrice(_itemId) {\r\n    MarketItem storage itemToBuy = marketItems[_itemId];\r\n    require(msg.sender != itemToBuy.seller);\r\n    require(msg.value >= itemToBuy.price);\r\n\r\n    (bool success, ) = itemToBuy.seller.call{value:itemToBuy.price}(\"\");\r\n    require(success, \"Transfer failed.\");\r\n\r\n    itemToBuy.nft.safeTransferFrom(address(this),msg.sender,itemToBuy.tokenID);\r\n    itemToBuy.isSold = true;\r\n    itemToBuy.itemState = State.Sold;\r\n    itemToBuy.buyer = payable(msg.sender);\r\n    _itemsSoldCounter.increment();\r\n    emit logSold(_itemId,itemToBuy.price,itemToBuy.buyer,itemToBuy.seller);\r\n  }\r\n\r\n  /// @notice accept nft to be listed for sale\r\n  /// @dev it changes the state of the item from pending to listedForSale and notify the validator\r\n  /// @param _itemId the ID of the item that contain nft and it's info in the marketplace\r\n  function acceptItem(uint256 _itemId) public whenNotPaused nonReentrant itemExists(_itemId) pending(_itemId)  isAdminOrValidator()  {\r\n    marketItems[_itemId].itemState = State.ListedForSale;\r\n    _pendingItemsCounter.decrement();\r\n    emit logListedForSale(_itemId,marketItems[_itemId].price,marketItems[_itemId].seller);\r\n  }\r\n\r\n  /// @notice reject nft so that it isn't listed for sale\r\n  /// @dev it changes the state of the item from pending to remove and send the nft back to it's owner notify the validator\r\n  /// @param _itemId the ID of the item that contain nft and it's info in the marketplace\r\n  function rejectItem(uint256 _itemId) public whenNotPaused nonReentrant itemExists(_itemId)  pending(_itemId)   isAdminOrValidator()  {\r\n    marketItems[_itemId].nft.safeTransferFrom(address(this),marketItems[_itemId].seller,marketItems[_itemId].tokenID);\r\n    marketItems[_itemId].itemState = State.Removed;\r\n    _pendingItemsCounter.decrement();\r\n    emit logRemoved(_itemId);\r\n  }\r\n\r\n  /// @notice change the price of an owned nft\r\n  /// @dev change the price of an nft in case the caller is the owner of the nft and that nft isn't sold\r\n  /// @param _itemId the ID of the item which the caller want to change its price\r\n  /// @param _newPrice the new price of the nft\r\n  function changeItemPrice(uint256 _itemId,uint256 _newPrice) public whenNotPaused nonReentrant itemExists(_itemId){\r\n    require(_newPrice != marketItems[_itemId].price && _newPrice > 0);\r\n    require(marketItems[_itemId].isSold == false);\r\n    require(marketItems[_itemId].seller == msg.sender);\r\n    marketItems[_itemId].price = _newPrice;\r\n    emit logPriceChanged(_itemId,_newPrice);\r\n  }\r\n\r\n  /// @notice return the number of pending nfts in the marketplace\r\n  /// @return PendingItemsCounter \r\n  function getNumberOfPendingNFTS() public view  whenNotPaused onlyRole(ADMIN_ROLE) returns(uint256) {\r\n    return _pendingItemsCounter.current();\r\n  }\r\n\r\n  /// @notice return the number of Sold nfts in the marketplace\r\n  /// @return SoldNFTCounter \r\n  function getNumberOfSoldNFTS() public view whenNotPaused onlyRole(ADMIN_ROLE) returns(uint256) {\r\n    return _itemsSoldCounter.current();\r\n  }\r\n\r\n  /// @notice return the number of all nfts in the marketplace\r\n  /// @return allnftsCounter  \r\n  function getNumberOfAllNFTS() public view whenNotPaused onlyRole(ADMIN_ROLE) returns(uint256)  {\r\n    return _itemIdCounter.current();\r\n  }\r\n\r\n  \r\n  /// @notice return the unsold nfts\r\n  /// @return array contains all market items that listed for sale\r\n  function getAllListedItems() public view whenNotPaused returns (MarketItem[] memory) {\r\n    uint itemCount = _itemIdCounter.current();\r\n    uint unsoldItemCount = _itemIdCounter.current() - _itemsSoldCounter.current();\r\n    uint currentIndex = 0;\r\n\r\n    MarketItem[] memory items = new MarketItem[](unsoldItemCount);\r\n    for (uint i = 0; i < itemCount; i++) {\r\n      if (marketItems[i + 1].itemState == State.ListedForSale && marketItems[i + 1].buyer == address(0)) {\r\n        uint currentId = i + 1;\r\n        MarketItem storage currentItem = marketItems[currentId];\r\n        items[currentIndex] = currentItem;\r\n        currentIndex += 1;\r\n      }\r\n    }\r\n    return items;\r\n  }\r\n\r\n  /// @notice the sold nfts\r\n  /// @return array contains all sold market items\r\n  function getAllSoldItems() public view whenNotPaused onlyRole(ADMIN_ROLE) returns (MarketItem[] memory) {\r\n    uint itemCount = _itemIdCounter.current();\r\n    uint unsoldItemCount = _itemIdCounter.current() - _itemsSoldCounter.current();\r\n    uint currentIndex = 0;\r\n\r\n    MarketItem[] memory items = new MarketItem[](unsoldItemCount);\r\n    for (uint i = 0; i < itemCount; i++) {\r\n      if (marketItems[i + 1].itemState == State.Sold || marketItems[i + 1].buyer != address(0)) {\r\n        uint currentId = i + 1;\r\n        MarketItem storage currentItem = marketItems[currentId];\r\n        items[currentIndex] = currentItem;\r\n        currentIndex += 1;\r\n      }\r\n    }\r\n    return items;\r\n  }\r\n\r\n  /// @notice pending nfts\r\n  /// @return array contains all the pending market items\r\n  function getAllPedningItems() public view whenNotPaused isAdminOrValidator() returns (MarketItem[] memory) {\r\n    uint itemCount = _itemIdCounter.current();\r\n    uint unsoldItemCount = _itemIdCounter.current() - _itemsSoldCounter.current();\r\n    uint currentIndex = 0;\r\n\r\n    MarketItem[] memory items = new MarketItem[](unsoldItemCount);\r\n    for (uint i = 0; i < itemCount; i++) {\r\n      if (marketItems[i + 1].itemState == State.Pending) {\r\n        uint currentId = i + 1;\r\n        MarketItem storage currentItem = marketItems[currentId];\r\n        items[currentIndex] = currentItem;\r\n        currentIndex += 1;\r\n      }\r\n    }\r\n    return items;\r\n  }\r\n\r\n  /// @notice pending nfts\r\n  /// @return array contains all the pending market items\r\n  function getAllRemovedItems() public view whenNotPaused isAdminOrValidator() returns (MarketItem[] memory) {\r\n    uint itemCount = _itemIdCounter.current();\r\n    uint unsoldItemCount = _itemIdCounter.current() - _itemsSoldCounter.current();\r\n    uint currentIndex = 0;\r\n\r\n    MarketItem[] memory items = new MarketItem[](unsoldItemCount);\r\n    for (uint i = 0; i < itemCount; i++) {\r\n      if (marketItems[i + 1].itemState == State.Removed) {\r\n        uint currentId = i + 1;\r\n        MarketItem storage currentItem = marketItems[currentId];\r\n        items[currentIndex] = currentItem;\r\n        currentIndex += 1;\r\n      }\r\n    }\r\n    return items;\r\n  }\r\n\r\n  /// @notice all items created\r\n  /// @return array contains all the created items by msg.sender \r\n  function getItemsCreated() public view whenNotPaused returns(MarketItem[] memory) {\r\n    uint totalItemCount = _itemIdCounter.current();\r\n    uint itemCount = 0;\r\n    uint currentIndex = 0;\r\n\r\n    for (uint i = 0; i < totalItemCount; i++) {\r\n      if (marketItems[i + 1].seller == msg.sender) {\r\n        itemCount += 1;\r\n      }\r\n    }\r\n\r\n    MarketItem[] memory items = new MarketItem[](itemCount);\r\n    for (uint i = 0; i < totalItemCount; i++) {\r\n      if (marketItems[i + 1].seller == msg.sender) {\r\n        uint currentId = i + 1;\r\n        MarketItem storage currentItem = marketItems[currentId];\r\n        items[currentIndex] = currentItem;\r\n        currentIndex += 1;\r\n      }\r\n    }\r\n    return items;\r\n  }\r\n\r\n  /// @notice all items sender has purchased\r\n  /// @return array contains all the market items which has been bought by caller\r\n  function getMyNFTS() public view whenNotPaused returns(MarketItem[] memory) {\r\n    uint totalItemCount = _itemIdCounter.current();\r\n    uint itemCount = 0;\r\n    uint currentIndex = 0;\r\n\r\n    for (uint i = 0; i < totalItemCount; i++) {\r\n      if (marketItems[i + 1].buyer == msg.sender) {\r\n        itemCount += 1;\r\n      }\r\n    }\r\n\r\n    MarketItem[] memory items = new MarketItem[](itemCount);\r\n    for (uint i = 0; i < totalItemCount; i++) {\r\n      if (marketItems[i + 1].buyer == msg.sender) {\r\n        uint currentId = i + 1;\r\n        MarketItem storage currentItem = marketItems[currentId];\r\n        items[currentIndex] = currentItem;\r\n        currentIndex += 1;\r\n      }\r\n    }\r\n    return items;\r\n  }\r\n\r\n  /// @notice make a new validator to a the valid\r\n  /// @dev this function is called by the admin only although it prevents the admin from granting the role himself as he is already a validator\r\n  /// @param newValidator the address of the person the admin want to make him a validator\r\n  function grantValidator(address newValidator) public whenNotPaused onlyRole(ADMIN_ROLE) notZeroAddress(newValidator) notAdminAddress(newValidator) {\r\n      grantRole(VALIDATOR_ROLE,newValidator);\r\n  }\r\n\r\n  /// @notice remove dishonest validator from the validation proccess\r\n  /// @dev this function is called by the admin only also it prevents the admin from revoking the role himself\r\n  /// @param ToBeRevokedValidator the address of the person the admin want to remove him from validation\r\n  function revokeValidator(address ToBeRevokedValidator) public whenNotPaused onlyRole(ADMIN_ROLE) notZeroAddress(ToBeRevokedValidator) notAdminAddress(ToBeRevokedValidator){\r\n      revokeRole(VALIDATOR_ROLE,ToBeRevokedValidator);\r\n  }\r\n\r\n  /// @notice return the owner of the marketplace\r\n  /// @return the address of the marketplace owner\r\n  function getMarketplaceOwner() public view returns(address) {\r\n    return _owner;\r\n  }\r\n\r\n  /// @notice return the listing price of the marketplace\r\n  /// @return the price of listing an nft for sale\r\n  function getListingPrice() public view whenNotPaused returns(uint256) {\r\n    return listingPrice;\r\n  }\r\n\r\n  /// @notice pause the marketplace\r\n  function Pause() public whenNotPaused onlyRole(ADMIN_ROLE) {\r\n    _pause();\r\n  }\r\n\r\n  /// @notice continue the marketplace\r\n  function Unpause() public whenPaused onlyRole(ADMIN_ROLE) {\r\n    _unpause();\r\n  }\r\n\r\n  /// @notice change the price of listing of nft\r\n  /// @dev you have to pause the contract first to call this function to notify the customers of the new listing price\r\n  /// @param newListingPrice the new price of listing nft in the marketplace\r\n  function changeListingPrice(uint256 newListingPrice) public whenPaused onlyRole(ADMIN_ROLE)  {\r\n    require(newListingPrice > 0 && newListingPrice != listingPrice,'Value must be greater than zero and not equal to the old listing price');\r\n    listingPrice = newListingPrice;\r\n    emit logListingPriceChanged(listingPrice);\r\n  }\r\n  \r\n  // to check if the contract is a able to deal with nfts or not\r\n  //should be implemented to accept safeTransferFrom function in ERC721Enumerable\r\n   function onERC721Received(\r\n        address operator,\r\n        address from,\r\n        uint256 tokenId,\r\n        bytes calldata data\r\n    ) external pure returns (bytes4) {\r\n      return IERC721Receiver.onERC721Received.selector;\r\n    }\r\n}\r\n",
  "sourcePath": "E:\\NFT_Marketplace\\blockchain-developer-bootcamp-final-project\\contracts\\NFTMarketplace.sol",
  "compiler": {
    "name": "solc",
    "version": "0.8.9+commit.e5eed63a.Emscripten.clang"
  },
  "schemaVersion": "3.4.3",
  "updatedAt": "2021-12-12T12:06:50.431Z",
  "networkType": "ethereum",
  "devdoc": {
    "author": "Ramadan Wasfi",
    "events": {
      "logListedForSale(uint256,uint256,address)": {
        "details": "notify the user that the item is listed for sale",
        "params": {
          "itemId": "the id of the nft in the marketplace",
          "price": "the price of the nft",
          "seller": "the address of the seller of nft "
        }
      },
      "logListingPriceChanged(uint256)": {
        "params": {
          "newListingPrice": "the new price of listing an nft"
        }
      },
      "logPending(uint256,uint256,uint8,address,address,address,bool,uint256)": {
        "details": "notify the user that the item is pending and need to be validated first to be listed",
        "params": {
          "buyer": "the address of the buyer of the nft",
          "isSold": "boolean to check whether the nft has been sold or not",
          "itemID": "the id of the nft in the marketplace",
          "itemState": "the state of the nft 'pending - listed for sale - sold - removed'",
          "nft": "the address of the nft ",
          "price": "the price of the nft",
          "seller": "the address of the owner or seller of the nft",
          "tokenID": "the actual Id of the nft"
        }
      },
      "logPriceChanged(uint256,uint256)": {
        "params": {
          "itemId": "the ID of the item which the caller want to change its price",
          "newPrice": "the new price of the nft"
        }
      },
      "logRemoved(uint256)": {
        "details": "notify the validator that the item has been removed from the marketplace",
        "params": {
          "itemId": "the id of the nft which has been removed from the marketplace"
        }
      },
      "logSold(uint256,uint256,address,address)": {
        "details": "notify the user that the item is sold by whom with how much",
        "params": {
          "buyer": "the address of the buyer of the nft",
          "itemId": "the id of the nft that has been sold",
          "price": "the price of the nft",
          "seller": "the address of the seller of nft "
        }
      }
    },
    "kind": "dev",
    "methods": {
      "BuyItem(uint256)": {
        "details": "it check for enough funds and transfer the nft to buyer and money to seller",
        "params": {
          "_itemId": "the ID of the item that contain nft and it's info in the marketplace"
        }
      },
      "acceptItem(uint256)": {
        "details": "it changes the state of the item from pending to listedForSale and notify the validator",
        "params": {
          "_itemId": "the ID of the item that contain nft and it's info in the marketplace"
        }
      },
      "changeItemPrice(uint256,uint256)": {
        "details": "change the price of an nft in case the caller is the owner of the nft and that nft isn't sold",
        "params": {
          "_itemId": "the ID of the item which the caller want to change its price",
          "_newPrice": "the new price of the nft"
        }
      },
      "changeListingPrice(uint256)": {
        "details": "you have to pause the contract first to call this function to notify the customers of the new listing price",
        "params": {
          "newListingPrice": "the new price of listing nft in the marketplace"
        }
      },
      "createListingRequest(address,uint256,uint256)": {
        "params": {
          "_price": "the price of the nft the sender want to list for sale",
          "_tokenID": "the ID of the nft the sender want to list for sale",
          "nftContract": "the address of the nft the sender want to list for sale "
        },
        "returns": {
          "_0": "the ID of the item that contain nft and it's info in the marketplace"
        }
      },
      "getAllListedItems()": {
        "returns": {
          "_0": "array contains all market items that listed for sale"
        }
      },
      "getAllPedningItems()": {
        "returns": {
          "_0": "array contains all the pending market items"
        }
      },
      "getAllRemovedItems()": {
        "returns": {
          "_0": "array contains all the pending market items"
        }
      },
      "getAllSoldItems()": {
        "returns": {
          "_0": "array contains all sold market items"
        }
      },
      "getItemsCreated()": {
        "returns": {
          "_0": "array contains all the created items by msg.sender "
        }
      },
      "getListingPrice()": {
        "returns": {
          "_0": "the price of listing an nft for sale"
        }
      },
      "getMarketplaceOwner()": {
        "returns": {
          "_0": "the address of the marketplace owner"
        }
      },
      "getMyNFTS()": {
        "returns": {
          "_0": "array contains all the market items which has been bought by caller"
        }
      },
      "getNumberOfAllNFTS()": {
        "returns": {
          "_0": "allnftsCounter  "
        }
      },
      "getNumberOfPendingNFTS()": {
        "returns": {
          "_0": "PendingItemsCounter "
        }
      },
      "getNumberOfSoldNFTS()": {
        "returns": {
          "_0": "SoldNFTCounter "
        }
      },
      "getRoleAdmin(bytes32)": {
        "details": "Returns the admin role that controls `role`. See {grantRole} and {revokeRole}. To change a role's admin, use {_setRoleAdmin}."
      },
      "grantRole(bytes32,address)": {
        "details": "Grants `role` to `account`. If `account` had not been already granted `role`, emits a {RoleGranted} event. Requirements: - the caller must have ``role``'s admin role."
      },
      "grantValidator(address)": {
        "details": "this function is called by the admin only although it prevents the admin from granting the role himself as he is already a validator",
        "params": {
          "newValidator": "the address of the person the admin want to make him a validator"
        }
      },
      "hasRole(bytes32,address)": {
        "details": "Returns `true` if `account` has been granted `role`."
      },
      "onERC721Received(address,address,uint256,bytes)": {
        "details": "Whenever an {IERC721} `tokenId` token is transferred to this contract via {IERC721-safeTransferFrom} by `operator` from `from`, this function is called. It must return its Solidity selector to confirm the token transfer. If any other value is returned or the interface is not implemented by the recipient, the transfer will be reverted. The selector can be obtained in Solidity with `IERC721.onERC721Received.selector`."
      },
      "paused()": {
        "details": "Returns true if the contract is paused, and false otherwise."
      },
      "rejectItem(uint256)": {
        "details": "it changes the state of the item from pending to remove and send the nft back to it's owner notify the validator",
        "params": {
          "_itemId": "the ID of the item that contain nft and it's info in the marketplace"
        }
      },
      "renounceRole(bytes32,address)": {
        "details": "Revokes `role` from the calling account. Roles are often managed via {grantRole} and {revokeRole}: this function's purpose is to provide a mechanism for accounts to lose their privileges if they are compromised (such as when a trusted device is misplaced). If the calling account had been revoked `role`, emits a {RoleRevoked} event. Requirements: - the caller must be `account`."
      },
      "revokeRole(bytes32,address)": {
        "details": "Revokes `role` from `account`. If `account` had been granted `role`, emits a {RoleRevoked} event. Requirements: - the caller must have ``role``'s admin role."
      },
      "revokeValidator(address)": {
        "details": "this function is called by the admin only also it prevents the admin from revoking the role himself",
        "params": {
          "ToBeRevokedValidator": "the address of the person the admin want to remove him from validation"
        }
      },
      "supportsInterface(bytes4)": {
        "details": "See {IERC165-supportsInterface}."
      },
      "withdrawItem(uint256)": {
        "details": "it checks if the caller is the owner of item or not",
        "params": {
          "_itemId": "the ID of the item that contain nft and it's info in the marketplace"
        }
      }
    },
    "title": "Fixed Price NFT Marketplace",
    "version": 1
  },
  "userdoc": {
    "events": {
      "logListedForSale(uint256,uint256,address)": {
        "notice": "the item is listed for sale"
      },
      "logListingPriceChanged(uint256)": {
        "notice": "change the listing price "
      },
      "logPending(uint256,uint256,uint8,address,address,address,bool,uint256)": {
        "notice": "the item is pending and need to be validated first to be listed"
      },
      "logPriceChanged(uint256,uint256)": {
        "notice": "change the price of an nft in "
      },
      "logRemoved(uint256)": {
        "notice": "the nft has been removed from the marketplace"
      },
      "logSold(uint256,uint256,address,address)": {
        "notice": "the nft is sold "
      }
    },
    "kind": "user",
    "methods": {
      "BuyItem(uint256)": {
        "notice": "buying a token which listed for sale at fixed price,"
      },
      "Pause()": {
        "notice": "pause the marketplace"
      },
      "Unpause()": {
        "notice": "continue the marketplace"
      },
      "acceptItem(uint256)": {
        "notice": "accept nft to be listed for sale"
      },
      "changeItemPrice(uint256,uint256)": {
        "notice": "change the price of an owned nft"
      },
      "changeListingPrice(uint256)": {
        "notice": "change the price of listing of nft"
      },
      "createListingRequest(address,uint256,uint256)": {
        "notice": "create a request for listing a token in the marketplace"
      },
      "getAllListedItems()": {
        "notice": "return the unsold nfts"
      },
      "getAllPedningItems()": {
        "notice": "pending nfts"
      },
      "getAllRemovedItems()": {
        "notice": "pending nfts"
      },
      "getAllSoldItems()": {
        "notice": "the sold nfts"
      },
      "getItemsCreated()": {
        "notice": "all items created"
      },
      "getListingPrice()": {
        "notice": "return the listing price of the marketplace"
      },
      "getMarketplaceOwner()": {
        "notice": "return the owner of the marketplace"
      },
      "getMyNFTS()": {
        "notice": "all items sender has purchased"
      },
      "getNumberOfAllNFTS()": {
        "notice": "return the number of all nfts in the marketplace"
      },
      "getNumberOfPendingNFTS()": {
        "notice": "return the number of pending nfts in the marketplace"
      },
      "getNumberOfSoldNFTS()": {
        "notice": "return the number of Sold nfts in the marketplace"
      },
      "grantValidator(address)": {
        "notice": "make a new validator to a the valid"
      },
      "rejectItem(uint256)": {
        "notice": "reject nft so that it isn't listed for sale"
      },
      "revokeValidator(address)": {
        "notice": "remove dishonest validator from the validation proccess"
      },
      "withdrawItem(uint256)": {
        "notice": "withdraw an item from the marketplace,"
      }
    },
    "notice": "You can use this contract for only the most basic ",
    "version": 1
  }
}